{
  "contractName": "Asignatura",
  "abi": [
    {
      "inputs": [
        {
          "internalType": "string",
          "name": "_nombre",
          "type": "string"
        },
        {
          "internalType": "string",
          "name": "_curso",
          "type": "string"
        }
      ],
      "stateMutability": "nonpayable",
      "type": "constructor"
    },
    {
      "inputs": [
        {
          "internalType": "string",
          "name": "dni",
          "type": "string"
        }
      ],
      "name": "DNI_Already_Exists",
      "type": "error"
    },
    {
      "inputs": [
        {
          "internalType": "address",
          "name": "",
          "type": "address"
        },
        {
          "internalType": "uint256",
          "name": "",
          "type": "uint256"
        }
      ],
      "name": "calificaciones",
      "outputs": [
        {
          "internalType": "enum Asignatura.TipoNota",
          "name": "tipo",
          "type": "uint8"
        },
        {
          "internalType": "uint256",
          "name": "calificacion",
          "type": "uint256"
        }
      ],
      "stateMutability": "view",
      "type": "function",
      "constant": true
    },
    {
      "inputs": [],
      "name": "cerrada",
      "outputs": [
        {
          "internalType": "bool",
          "name": "",
          "type": "bool"
        }
      ],
      "stateMutability": "view",
      "type": "function",
      "constant": true
    },
    {
      "inputs": [],
      "name": "coordinador",
      "outputs": [
        {
          "internalType": "address",
          "name": "",
          "type": "address"
        }
      ],
      "stateMutability": "view",
      "type": "function",
      "constant": true
    },
    {
      "inputs": [],
      "name": "curso",
      "outputs": [
        {
          "internalType": "string",
          "name": "",
          "type": "string"
        }
      ],
      "stateMutability": "view",
      "type": "function",
      "constant": true
    },
    {
      "inputs": [
        {
          "internalType": "address",
          "name": "",
          "type": "address"
        }
      ],
      "name": "datosAlumno",
      "outputs": [
        {
          "internalType": "string",
          "name": "nombre",
          "type": "string"
        },
        {
          "internalType": "string",
          "name": "email",
          "type": "string"
        },
        {
          "internalType": "string",
          "name": "dni",
          "type": "string"
        }
      ],
      "stateMutability": "view",
      "type": "function",
      "constant": true
    },
    {
      "inputs": [
        {
          "internalType": "address",
          "name": "",
          "type": "address"
        }
      ],
      "name": "datosProfesor",
      "outputs": [
        {
          "internalType": "string",
          "name": "",
          "type": "string"
        }
      ],
      "stateMutability": "view",
      "type": "function",
      "constant": true
    },
    {
      "inputs": [
        {
          "internalType": "uint256",
          "name": "",
          "type": "uint256"
        }
      ],
      "name": "evaluaciones",
      "outputs": [
        {
          "internalType": "string",
          "name": "nombre",
          "type": "string"
        },
        {
          "internalType": "uint256",
          "name": "fecha",
          "type": "uint256"
        },
        {
          "internalType": "uint256",
          "name": "porcentaje",
          "type": "uint256"
        },
        {
          "internalType": "uint256",
          "name": "nota_minima",
          "type": "uint256"
        }
      ],
      "stateMutability": "view",
      "type": "function",
      "constant": true
    },
    {
      "inputs": [
        {
          "internalType": "uint256",
          "name": "",
          "type": "uint256"
        }
      ],
      "name": "matriculas",
      "outputs": [
        {
          "internalType": "address",
          "name": "",
          "type": "address"
        }
      ],
      "stateMutability": "view",
      "type": "function",
      "constant": true
    },
    {
      "inputs": [],
      "name": "nombre",
      "outputs": [
        {
          "internalType": "string",
          "name": "",
          "type": "string"
        }
      ],
      "stateMutability": "view",
      "type": "function",
      "constant": true
    },
    {
      "inputs": [],
      "name": "owner",
      "outputs": [
        {
          "internalType": "address",
          "name": "",
          "type": "address"
        }
      ],
      "stateMutability": "view",
      "type": "function",
      "constant": true
    },
    {
      "inputs": [],
      "name": "profesor",
      "outputs": [
        {
          "internalType": "address",
          "name": "",
          "type": "address"
        }
      ],
      "stateMutability": "view",
      "type": "function",
      "constant": true
    },
    {
      "inputs": [
        {
          "internalType": "uint256",
          "name": "",
          "type": "uint256"
        }
      ],
      "name": "profesores",
      "outputs": [
        {
          "internalType": "address",
          "name": "",
          "type": "address"
        }
      ],
      "stateMutability": "view",
      "type": "function",
      "constant": true
    },
    {
      "inputs": [],
      "name": "version",
      "outputs": [
        {
          "internalType": "string",
          "name": "",
          "type": "string"
        }
      ],
      "stateMutability": "view",
      "type": "function",
      "constant": true
    },
    {
      "stateMutability": "payable",
      "type": "receive",
      "payable": true
    },
    {
      "inputs": [],
      "name": "cerrar",
      "outputs": [],
      "stateMutability": "nonpayable",
      "type": "function"
    },
    {
      "inputs": [
        {
          "internalType": "address",
          "name": "_coordinador",
          "type": "address"
        }
      ],
      "name": "setCoordinador",
      "outputs": [],
      "stateMutability": "nonpayable",
      "type": "function"
    },
    {
      "inputs": [
        {
          "internalType": "address",
          "name": "_profesor_address",
          "type": "address"
        },
        {
          "internalType": "string",
          "name": "_name",
          "type": "string"
        }
      ],
      "name": "addProfesor",
      "outputs": [],
      "stateMutability": "nonpayable",
      "type": "function"
    },
    {
      "inputs": [],
      "name": "profesoresLength",
      "outputs": [
        {
          "internalType": "uint256",
          "name": "",
          "type": "uint256"
        }
      ],
      "stateMutability": "view",
      "type": "function",
      "constant": true
    },
    {
      "inputs": [
        {
          "internalType": "string",
          "name": "_nombre",
          "type": "string"
        },
        {
          "internalType": "string",
          "name": "_dni",
          "type": "string"
        },
        {
          "internalType": "string",
          "name": "_email",
          "type": "string"
        }
      ],
      "name": "automatricula",
      "outputs": [],
      "stateMutability": "nonpayable",
      "type": "function"
    },
    {
      "inputs": [
        {
          "internalType": "address",
          "name": "_address",
          "type": "address"
        },
        {
          "internalType": "string",
          "name": "_nombre",
          "type": "string"
        },
        {
          "internalType": "string",
          "name": "_dni",
          "type": "string"
        },
        {
          "internalType": "string",
          "name": "_email",
          "type": "string"
        }
      ],
      "name": "matricular",
      "outputs": [],
      "stateMutability": "nonpayable",
      "type": "function"
    },
    {
      "inputs": [],
      "name": "matriculasLength",
      "outputs": [
        {
          "internalType": "uint256",
          "name": "",
          "type": "uint256"
        }
      ],
      "stateMutability": "view",
      "type": "function",
      "constant": true
    },
    {
      "inputs": [],
      "name": "quienSoy",
      "outputs": [
        {
          "components": [
            {
              "internalType": "string",
              "name": "nombre",
              "type": "string"
            },
            {
              "internalType": "string",
              "name": "email",
              "type": "string"
            },
            {
              "internalType": "string",
              "name": "dni",
              "type": "string"
            }
          ],
          "internalType": "struct Asignatura.DatosAlumno",
          "name": "datos",
          "type": "tuple"
        }
      ],
      "stateMutability": "view",
      "type": "function",
      "constant": true
    },
    {
      "inputs": [
        {
          "internalType": "string",
          "name": "_nombre",
          "type": "string"
        },
        {
          "internalType": "uint256",
          "name": "_fecha",
          "type": "uint256"
        },
        {
          "internalType": "uint256",
          "name": "_porcentaje",
          "type": "uint256"
        },
        {
          "internalType": "uint256",
          "name": "_nota_minima",
          "type": "uint256"
        }
      ],
      "name": "creaEvaluacion",
      "outputs": [
        {
          "internalType": "uint256",
          "name": "",
          "type": "uint256"
        }
      ],
      "stateMutability": "nonpayable",
      "type": "function"
    },
    {
      "inputs": [],
      "name": "evaluacionesLength",
      "outputs": [
        {
          "internalType": "uint256",
          "name": "",
          "type": "uint256"
        }
      ],
      "stateMutability": "view",
      "type": "function",
      "constant": true
    },
    {
      "inputs": [
        {
          "internalType": "address",
          "name": "_alumno",
          "type": "address"
        },
        {
          "internalType": "uint256",
          "name": "_evaluacion",
          "type": "uint256"
        },
        {
          "internalType": "enum Asignatura.TipoNota",
          "name": "_tipo",
          "type": "uint8"
        },
        {
          "internalType": "uint256",
          "name": "_calificacion",
          "type": "uint256"
        }
      ],
      "name": "califica",
      "outputs": [],
      "stateMutability": "nonpayable",
      "type": "function"
    },
    {
      "inputs": [
        {
          "internalType": "uint256",
          "name": "_evaluacion",
          "type": "uint256"
        }
      ],
      "name": "miNota",
      "outputs": [
        {
          "internalType": "enum Asignatura.TipoNota",
          "name": "_tipo",
          "type": "uint8"
        },
        {
          "internalType": "uint256",
          "name": "_calificacion",
          "type": "uint256"
        }
      ],
      "stateMutability": "view",
      "type": "function",
      "constant": true
    },
    {
      "inputs": [
        {
          "internalType": "address",
          "name": "_address",
          "type": "address"
        }
      ],
      "name": "notaFinal",
      "outputs": [
        {
          "internalType": "enum Asignatura.TipoNota",
          "name": "tipo_nota",
          "type": "uint8"
        },
        {
          "internalType": "uint256",
          "name": "nota_final",
          "type": "uint256"
        }
      ],
      "stateMutability": "view",
      "type": "function",
      "constant": true
    },
    {
      "inputs": [],
      "name": "miNotaFinal",
      "outputs": [
        {
          "internalType": "enum Asignatura.TipoNota",
          "name": "tipo_nota",
          "type": "uint8"
        },
        {
          "internalType": "uint256",
          "name": "nota_final",
          "type": "uint256"
        }
      ],
      "stateMutability": "view",
      "type": "function",
      "constant": true
    }
  ],
  "bytecode": "0x60a06040526040518060400160405280600981526020017f323032332046756c6c0000000000000000000000000000000000000000000000815250600090816200004a9190620003e6565b503480156200005857600080fd5b50604051620045ed380380620045ed83398181016040528101906200007e919062000631565b6000825103620000c5576040517f08c379a0000000000000000000000000000000000000000000000000000000008152600401620000bc906200073d565b60405180910390fd5b60008151036200010c576040517f08c379a00000000000000000000000000000000000000000000000000000000081526004016200010390620007d5565b60405180910390fd5b81600190816200011d9190620003e6565b5080600290816200012f9190620003e6565b503373ffffffffffffffffffffffffffffffffffffffff1660808173ffffffffffffffffffffffffffffffffffffffff16815250505050620007f7565b600081519050919050565b7f4e487b7100000000000000000000000000000000000000000000000000000000600052604160045260246000fd5b7f4e487b7100000000000000000000000000000000000000000000000000000000600052602260045260246000fd5b60006002820490506001821680620001ee57607f821691505b602082108103620002045762000203620001a6565b5b50919050565b60008190508160005260206000209050919050565b60006020601f8301049050919050565b600082821b905092915050565b6000600883026200026e7fffffffffffffffffffffffffffffffffffffffffffffffffffffffffffffffff826200022f565b6200027a86836200022f565b95508019841693508086168417925050509392505050565b6000819050919050565b6000819050919050565b6000620002c7620002c1620002bb8462000292565b6200029c565b62000292565b9050919050565b6000819050919050565b620002e383620002a6565b620002fb620002f282620002ce565b8484546200023c565b825550505050565b600090565b6200031262000303565b6200031f818484620002d8565b505050565b5b8181101562000347576200033b60008262000308565b60018101905062000325565b5050565b601f821115620003965762000360816200020a565b6200036b846200021f565b810160208510156200037b578190505b620003936200038a856200021f565b83018262000324565b50505b505050565b600082821c905092915050565b6000620003bb600019846008026200039b565b1980831691505092915050565b6000620003d68383620003a8565b9150826002028217905092915050565b620003f1826200016c565b67ffffffffffffffff8111156200040d576200040c62000177565b5b620004198254620001d5565b620004268282856200034b565b600060209050601f8311600181146200045e576000841562000449578287015190505b620004558582620003c8565b865550620004c5565b601f1984166200046e866200020a565b60005b82811015620004985784890151825560018201915060208501945060208101905062000471565b86831015620004b85784890151620004b4601f891682620003a8565b8355505b6001600288020188555050505b505050505050565b6000604051905090565b600080fd5b600080fd5b600080fd5b600080fd5b6000601f19601f8301169050919050565b6200050782620004eb565b810181811067ffffffffffffffff8211171562000529576200052862000177565b5b80604052505050565b60006200053e620004cd565b90506200054c8282620004fc565b919050565b600067ffffffffffffffff8211156200056f576200056e62000177565b5b6200057a82620004eb565b9050602081019050919050565b60005b83811015620005a75780820151818401526020810190506200058a565b60008484015250505050565b6000620005ca620005c48462000551565b62000532565b905082815260208101848484011115620005e957620005e8620004e6565b5b620005f684828562000587565b509392505050565b600082601f830112620006165762000615620004e1565b5b815162000628848260208601620005b3565b91505092915050565b600080604083850312156200064b576200064a620004d7565b5b600083015167ffffffffffffffff8111156200066c576200066b620004dc565b5b6200067a85828601620005fe565b925050602083015167ffffffffffffffff8111156200069e576200069d620004dc565b5b620006ac85828601620005fe565b9150509250929050565b600082825260208201905092915050565b7f456c206e6f6d627265206465206c6120617369676e6174757261206e6f20707560008201527f6564652073657220766163696f00000000000000000000000000000000000000602082015250565b600062000725602d83620006b6565b91506200073282620006c7565b604082019050919050565b60006020820190508181036000830152620007588162000716565b9050919050565b7f456c20637572736f2061636164656d69636f206465206c6120617369676e617460008201527f757261206e6f2070756564652073657220766163696f00000000000000000000602082015250565b6000620007bd603683620006b6565b9150620007ca826200075f565b604082019050919050565b60006020820190508181036000830152620007f081620007ae565b9050919050565b608051613dc5620008286000396000818161090401528181610f4701528181611a9e0152611d850152613dc56000f3fe6080604052600436106101a05760003560e01c80636bf8aad6116100ec578063d00de47a1161008a578063dab6ff2811610064578063dab6ff2814610663578063deafcc411461067a578063df096576146106a5578063f967f986146106d0576101e0565b8063d00de47a146105d0578063d27c3f3c146105fc578063d51b45841461063a576101e0565b80639e1d8f4b116100c65780639e1d8f4b14610500578063bc7b35b21461052b578063c791813914610556578063c837375014610593576101e0565b80636bf8aad61461046b5780637810ff1e146104aa5780638da5cb5b146104d5576101e0565b806347ba31da1161015957806354fd4d501161013357806354fd4d501461039c5780635aa4ffe6146103c7578063641945bf14610405578063681d4ca614610442576101e0565b806347ba31da1461031d578063488cf4f5146103465780635376688314610371576101e0565b8063034856d7146101e55780631d2e4d2b1461022257806322c4e3941461024b57806330322c9b1461027657806342a6dde21461029f57806344f7a8cc146102dd576101e0565b366101e0576040517f08c379a00000000000000000000000000000000000000000000000000000000081526004016101d7906126e3565b60405180910390fd5b600080fd5b3480156101f157600080fd5b5061020c60048036038101906102079190612893565b6106fb565b6040516102199190612925565b60405180910390f35b34801561022e57600080fd5b506102496004803603810190610244919061299e565b610902565b005b34801561025757600080fd5b50610260610b66565b60405161026d9190612a15565b60405180910390f35b34801561028257600080fd5b5061029d60048036038101906102989190612a55565b610b79565b005b3480156102ab57600080fd5b506102c660048036038101906102c19190612abc565b610e3f565b6040516102d4929190612b73565b60405180910390f35b3480156102e957600080fd5b5061030460048036038101906102ff9190612b9c565b610e7d565b6040516103149493929190612c37565b60405180910390f35b34801561032957600080fd5b50610344600480360381019061033f9190612c83565b610f45565b005b34801561035257600080fd5b5061035b611202565b6040516103689190612925565b60405180910390f35b34801561037d57600080fd5b5061038661120f565b6040516103939190612de6565b60405180910390f35b3480156103a857600080fd5b506103b1611464565b6040516103be9190612e08565b60405180910390f35b3480156103d357600080fd5b506103ee60048036038101906103e99190612e2a565b6114f2565b6040516103fc929190612b73565b60405180910390f35b34801561041157600080fd5b5061042c60048036038101906104279190612e2a565b61159b565b6040516104399190612e08565b60405180910390f35b34801561044e57600080fd5b5061046960048036038101906104649190612e57565b61163b565b005b34801561047757600080fd5b50610492600480360381019061048d9190612e2a565b6118b4565b6040516104a193929190612efe565b60405180910390f35b3480156104b657600080fd5b506104bf611a76565b6040516104cc9190612f59565b60405180910390f35b3480156104e157600080fd5b506104ea611a9c565b6040516104f79190612f59565b60405180910390f35b34801561050c57600080fd5b50610515611ac0565b6040516105229190612925565b60405180910390f35b34801561053757600080fd5b50610540611acd565b60405161054d9190612e08565b60405180910390f35b34801561056257600080fd5b5061057d60048036038101906105789190612b9c565b611b5b565b60405161058a9190612f59565b60405180910390f35b34801561059f57600080fd5b506105ba60048036038101906105b59190612b9c565b611b9a565b6040516105c79190612f59565b60405180910390f35b3480156105dc57600080fd5b506105e5611bd9565b6040516105f3929190612b73565b60405180910390f35b34801561060857600080fd5b50610623600480360381019061061e9190612b9c565b611c39565b604051610631929190612b73565b60405180910390f35b34801561064657600080fd5b50610661600480360381019061065c9190612e2a565b611d83565b005b34801561066f57600080fd5b50610678611f14565b005b34801561068657600080fd5b5061068f611fc1565b60405161069c9190612e08565b60405180910390f35b3480156106b157600080fd5b506106ba61204f565b6040516106c79190612f59565b60405180910390f35b3480156106dc57600080fd5b506106e5612075565b6040516106f29190612925565b60405180910390f35b6000600460009054906101000a900473ffffffffffffffffffffffffffffffffffffffff1673ffffffffffffffffffffffffffffffffffffffff163373ffffffffffffffffffffffffffffffffffffffff161461078d576040517f08c379a000000000000000000000000000000000000000000000000000000000815260040161078490612fc0565b60405180910390fd5b600360009054906101000a900460ff16156107dd576040517f08c379a00000000000000000000000000000000000000000000000000000000081526004016107d49061302c565b60405180910390fd5b6000855103610821576040517f08c379a0000000000000000000000000000000000000000000000000000000008152600401610818906130be565b60405180910390fd5b60648310610864576040517f08c379a000000000000000000000000000000000000000000000000000000000815260040161085b90613150565b60405180910390fd5b6007604051806080016040528087815260200186815260200185815260200184815250908060018154018082558091505060019003906000526020600020906004020160009091909190915060008201518160000190816108c5919061337c565b50602082015181600101556040820151816002015560608201518160030155505060016007805490506108f8919061347d565b9050949350505050565b7f000000000000000000000000000000000000000000000000000000000000000073ffffffffffffffffffffffffffffffffffffffff163373ffffffffffffffffffffffffffffffffffffffff1614610990576040517f08c379a0000000000000000000000000000000000000000000000000000000008152600401610987906134fd565b60405180910390fd5b600360009054906101000a900460ff16156109e0576040517f08c379a00000000000000000000000000000000000000000000000000000000081526004016109d79061302c565b60405180910390fd5b6000815111610a24576040517f08c379a0000000000000000000000000000000000000000000000000000000008152600401610a1b9061358f565b60405180910390fd5b6000600960008473ffffffffffffffffffffffffffffffffffffffff1673ffffffffffffffffffffffffffffffffffffffff1681526020019081526020016000208054610a709061319f565b905014610ab2576040517f08c379a0000000000000000000000000000000000000000000000000000000008152600401610aa9906135fb565b60405180910390fd5b80600960008473ffffffffffffffffffffffffffffffffffffffff1673ffffffffffffffffffffffffffffffffffffffff1681526020019081526020016000209081610afe919061337c565b506005829080600181540180825580915050600190039060005260206000200160009091909190916101000a81548173ffffffffffffffffffffffffffffffffffffffff021916908373ffffffffffffffffffffffffffffffffffffffff1602179055505050565b600360009054906101000a900460ff1681565b6000805b610b85612075565b811015610c19573373ffffffffffffffffffffffffffffffffffffffff1660058281548110610bb757610bb661361b565b5b9060005260206000200160009054906101000a900473ffffffffffffffffffffffffffffffffffffffff1673ffffffffffffffffffffffffffffffffffffffff1603610c065760019150610c19565b8080610c119061364a565b915050610b7d565b5080610c5a576040517f08c379a0000000000000000000000000000000000000000000000000000000008152600401610c51906136de565b60405180910390fd5b600360009054906101000a900460ff1615610caa576040517f08c379a0000000000000000000000000000000000000000000000000000000008152600401610ca19061302c565b60405180910390fd5b610cb385612082565b610cf2576040517f08c379a0000000000000000000000000000000000000000000000000000000008152600401610ce990613770565b60405180910390fd5b6007805490508410610d39576040517f08c379a0000000000000000000000000000000000000000000000000000000008152600401610d3090613802565b60405180910390fd5b6103e8821115610d7e576040517f08c379a0000000000000000000000000000000000000000000000000000000008152600401610d75906138ba565b60405180910390fd5b60006040518060400160405280856002811115610d9e57610d9d612afc565b5b815260200184815250905080600a60008873ffffffffffffffffffffffffffffffffffffffff1673ffffffffffffffffffffffffffffffffffffffff168152602001908152602001600020600087815260200190815260200160002060008201518160000160006101000a81548160ff02191690836002811115610e2557610e24612afc565b5b021790555060208201518160010155905050505050505050565b600a602052816000526040600020602052806000526040600020600091509150508060000160009054906101000a900460ff16908060010154905082565b60078181548110610e8d57600080fd5b9060005260206000209060040201600091509050806000018054610eb09061319f565b80601f0160208091040260200160405190810160405280929190818152602001828054610edc9061319f565b8015610f295780601f10610efe57610100808354040283529160200191610f29565b820191906000526020600020905b815481529060010190602001808311610f0c57829003601f168201915b5050505050908060010154908060020154908060030154905084565b7f000000000000000000000000000000000000000000000000000000000000000073ffffffffffffffffffffffffffffffffffffffff163373ffffffffffffffffffffffffffffffffffffffff1614610fd3576040517f08c379a0000000000000000000000000000000000000000000000000000000008152600401610fca906134fd565b60405180910390fd5b600360009054906101000a900460ff1615611023576040517f08c379a000000000000000000000000000000000000000000000000000000000815260040161101a9061302c565b60405180910390fd5b6000835103611067576040517f08c379a000000000000000000000000000000000000000000000000000000000815260040161105e90613926565b60405180910390fd5b60008251036110ab576040517f08c379a00000000000000000000000000000000000000000000000000000000081526004016110a290613992565b60405180910390fd5b6110b482612160565b156110f4576040517f08c379a00000000000000000000000000000000000000000000000000000000081526004016110eb906139fe565b60405180910390fd5b6000604051806060016040528085815260200184815260200183815250905080600860008773ffffffffffffffffffffffffffffffffffffffff1673ffffffffffffffffffffffffffffffffffffffff1681526020019081526020016000206000820151816000019081611168919061337c565b50602082015181600101908161117e919061337c565b506040820151816002019081611194919061337c565b509050506006859080600181540180825580915050600190039060005260206000200160009091909190916101000a81548173ffffffffffffffffffffffffffffffffffffffff021916908373ffffffffffffffffffffffffffffffffffffffff1602179055505050505050565b6000600780549050905090565b61121761263f565b61122033612082565b61125f576040517f08c379a000000000000000000000000000000000000000000000000000000000815260040161125690613a90565b60405180910390fd5b600860003373ffffffffffffffffffffffffffffffffffffffff1673ffffffffffffffffffffffffffffffffffffffff1681526020019081526020016000206040518060600160405290816000820180546112b99061319f565b80601f01602080910402602001604051908101604052809291908181526020018280546112e59061319f565b80156113325780601f1061130757610100808354040283529160200191611332565b820191906000526020600020905b81548152906001019060200180831161131557829003601f168201915b5050505050815260200160018201805461134b9061319f565b80601f01602080910402602001604051908101604052809291908181526020018280546113779061319f565b80156113c45780601f10611399576101008083540402835291602001916113c4565b820191906000526020600020905b8154815290600101906020018083116113a757829003601f168201915b505050505081526020016002820180546113dd9061319f565b80601f01602080910402602001604051908101604052809291908181526020018280546114099061319f565b80156114565780601f1061142b57610100808354040283529160200191611456565b820191906000526020600020905b81548152906001019060200180831161143957829003601f168201915b505050505081525050905090565b600080546114719061319f565b80601f016020809104026020016040519081016040528092919081815260200182805461149d9061319f565b80156114ea5780601f106114bf576101008083540402835291602001916114ea565b820191906000526020600020905b8154815290600101906020018083116114cd57829003601f168201915b505050505081565b600080600460009054906101000a900473ffffffffffffffffffffffffffffffffffffffff1673ffffffffffffffffffffffffffffffffffffffff163373ffffffffffffffffffffffffffffffffffffffff1614611585576040517f08c379a000000000000000000000000000000000000000000000000000000000815260040161157c90612fc0565b60405180910390fd5b61158e836122aa565b8092508193505050915091565b600960205280600052604060002060009150905080546115ba9061319f565b80601f01602080910402602001604051908101604052809291908181526020018280546115e69061319f565b80156116335780601f1061160857610100808354040283529160200191611633565b820191906000526020600020905b81548152906001019060200180831161161657829003601f168201915b505050505081565b61164433612082565b15611684576040517f08c379a000000000000000000000000000000000000000000000000000000000815260040161167b90613b22565b60405180910390fd5b600360009054906101000a900460ff16156116d4576040517f08c379a00000000000000000000000000000000000000000000000000000000081526004016116cb9061302c565b60405180910390fd5b6000835103611718576040517f08c379a000000000000000000000000000000000000000000000000000000000815260040161170f90613926565b60405180910390fd5b600082510361175c576040517f08c379a000000000000000000000000000000000000000000000000000000000815260040161175390613992565b60405180910390fd5b61176582612160565b156117a757816040517f9f7c945800000000000000000000000000000000000000000000000000000000815260040161179e9190612e08565b60405180910390fd5b6000604051806060016040528085815260200184815260200183815250905080600860003373ffffffffffffffffffffffffffffffffffffffff1673ffffffffffffffffffffffffffffffffffffffff168152602001908152602001600020600082015181600001908161181b919061337c565b506020820151816001019081611831919061337c565b506040820151816002019081611847919061337c565b509050506006339080600181540180825580915050600190039060005260206000200160009091909190916101000a81548173ffffffffffffffffffffffffffffffffffffffff021916908373ffffffffffffffffffffffffffffffffffffffff16021790555050505050565b60086020528060005260406000206000915090508060000180546118d79061319f565b80601f01602080910402602001604051908101604052809291908181526020018280546119039061319f565b80156119505780601f1061192557610100808354040283529160200191611950565b820191906000526020600020905b81548152906001019060200180831161193357829003601f168201915b5050505050908060010180546119659061319f565b80601f01602080910402602001604051908101604052809291908181526020018280546119919061319f565b80156119de5780601f106119b3576101008083540402835291602001916119de565b820191906000526020600020905b8154815290600101906020018083116119c157829003601f168201915b5050505050908060020180546119f39061319f565b80601f0160208091040260200160405190810160405280929190818152602001828054611a1f9061319f565b8015611a6c5780601f10611a4157610100808354040283529160200191611a6c565b820191906000526020600020905b815481529060010190602001808311611a4f57829003601f168201915b5050505050905083565b600460009054906101000a900473ffffffffffffffffffffffffffffffffffffffff1681565b7f000000000000000000000000000000000000000000000000000000000000000081565b6000600680549050905090565b60018054611ada9061319f565b80601f0160208091040260200160405190810160405280929190818152602001828054611b069061319f565b8015611b535780601f10611b2857610100808354040283529160200191611b53565b820191906000526020600020905b815481529060010190602001808311611b3657829003601f168201915b505050505081565b60068181548110611b6b57600080fd5b906000526020600020016000915054906101000a900473ffffffffffffffffffffffffffffffffffffffff1681565b60058181548110611baa57600080fd5b906000526020600020016000915054906101000a900473ffffffffffffffffffffffffffffffffffffffff1681565b600080611be533612082565b611c24576040517f08c379a0000000000000000000000000000000000000000000000000000000008152600401611c1b90613a90565b60405180910390fd5b611c2d336122aa565b80925081935050509091565b600080611c4533612082565b611c84576040517f08c379a0000000000000000000000000000000000000000000000000000000008152600401611c7b90613a90565b60405180910390fd5b6007805490508310611ccb576040517f08c379a0000000000000000000000000000000000000000000000000000000008152600401611cc290613bb4565b60405180910390fd5b6000600a60003373ffffffffffffffffffffffffffffffffffffffff1673ffffffffffffffffffffffffffffffffffffffff16815260200190815260200160002060008581526020019081526020016000206040518060400160405290816000820160009054906101000a900460ff166002811115611d4d57611d4c612afc565b5b6002811115611d5f57611d5e612afc565b5b81526020016001820154815250509050806000015192508060200151915050915091565b7f000000000000000000000000000000000000000000000000000000000000000073ffffffffffffffffffffffffffffffffffffffff163373ffffffffffffffffffffffffffffffffffffffff1614611e11576040517f08c379a0000000000000000000000000000000000000000000000000000000008152600401611e08906134fd565b60405180910390fd5b600360009054906101000a900460ff1615611e61576040517f08c379a0000000000000000000000000000000000000000000000000000000008152600401611e589061302c565b60405180910390fd5b600073ffffffffffffffffffffffffffffffffffffffff168173ffffffffffffffffffffffffffffffffffffffff1603611ed0576040517f08c379a0000000000000000000000000000000000000000000000000000000008152600401611ec790613c46565b60405180910390fd5b80600460006101000a81548173ffffffffffffffffffffffffffffffffffffffff021916908373ffffffffffffffffffffffffffffffffffffffff16021790555050565b600460009054906101000a900473ffffffffffffffffffffffffffffffffffffffff1673ffffffffffffffffffffffffffffffffffffffff163373ffffffffffffffffffffffffffffffffffffffff1614611fa4576040517f08c379a0000000000000000000000000000000000000000000000000000000008152600401611f9b90612fc0565b60405180910390fd5b6001600360006101000a81548160ff021916908315150217905550565b60028054611fce9061319f565b80601f0160208091040260200160405190810160405280929190818152602001828054611ffa9061319f565b80156120475780601f1061201c57610100808354040283529160200191612047565b820191906000526020600020905b81548152906001019060200180831161202a57829003601f168201915b505050505081565b600360019054906101000a900473ffffffffffffffffffffffffffffffffffffffff1681565b6000600580549050905090565b600080600860008473ffffffffffffffffffffffffffffffffffffffff1673ffffffffffffffffffffffffffffffffffffffff16815260200190815260200160002060000180546120d29061319f565b80601f01602080910402602001604051908101604052809291908181526020018280546120fe9061319f565b801561214b5780601f106121205761010080835404028352916020019161214b565b820191906000526020600020905b81548152906001019060200180831161212e57829003601f168201915b50505050509050600081511415915050919050565b6000805b6006805490508110156122a457612283600860006006848154811061218c5761218b61361b565b5b9060005260206000200160009054906101000a900473ffffffffffffffffffffffffffffffffffffffff1673ffffffffffffffffffffffffffffffffffffffff1673ffffffffffffffffffffffffffffffffffffffff16815260200190815260200160002060020180546121ff9061319f565b80601f016020809104026020016040519081016040528092919081815260200182805461222b9061319f565b80156122785780601f1061224d57610100808354040283529160200191612278565b820191906000526020600020905b81548152906001019060200180831161225b57829003601f168201915b5050505050846125e6565b1561229157600191506122a4565b808061229c9061364a565b915050612164565b50919050565b6000806000600190506000806000805b6122c2611202565b81101561255f57600060028111156122dd576122dc612afc565b5b600a60008a73ffffffffffffffffffffffffffffffffffffffff1673ffffffffffffffffffffffffffffffffffffffff168152602001908152602001600020600083815260200190815260200160002060000160009054906101000a900460ff1660028111156123505761234f612afc565b5b0361236257600096506000955061255f565b6001600281111561237657612375612afc565b5b600a60008a73ffffffffffffffffffffffffffffffffffffffff1673ffffffffffffffffffffffffffffffffffffffff168152602001908152602001600020600083815260200190815260200160002060000160009054906101000a900460ff1660028111156123e9576123e8612afc565b5b146123f357600094505b6001600281111561240757612406612afc565b5b600a60008a73ffffffffffffffffffffffffffffffffffffffff1673ffffffffffffffffffffffffffffffffffffffff168152602001908152602001600020600083815260200190815260200160002060000160009054906101000a900460ff16600281111561247a57612479612afc565b5b036124885760019650600193505b6007818154811061249c5761249b61361b565b5b906000526020600020906004020160020154826124b99190613c66565b9150600781815481106124cf576124ce61361b565b5b906000526020600020906004020160020154600a60008a73ffffffffffffffffffffffffffffffffffffffff1673ffffffffffffffffffffffffffffffffffffffff16815260200190815260200160002060008381526020019081526020016000206001015461253f9190613c9a565b8361254a9190613c66565b925080806125579061364a565b9150506122ba565b5083156125ad576000600281111561257a57612579612afc565b5b86600281111561258d5761258c612afc565b5b0361259f5760009550600094506125a8565b60019550600094505b6125dd565b6002955080826125bd9190613d0b565b94508280156125cd57506101f385115b156125dc57600295506101f394505b5b50505050915091565b6000816040516020016125f99190613d78565b60405160208183030381529060405280519060200120836040516020016126209190613d78565b6040516020818303038152906040528051906020012014905092915050565b60405180606001604052806060815260200160608152602001606081525090565b600082825260208201905092915050565b7f4e6f207365207065726d697465206c6120726563657063696f6e20646520646960008201527f6e65726f2e000000000000000000000000000000000000000000000000000000602082015250565b60006126cd602583612660565b91506126d882612671565b604082019050919050565b600060208201905081810360008301526126fc816126c0565b9050919050565b6000604051905090565b600080fd5b600080fd5b600080fd5b600080fd5b6000601f19601f8301169050919050565b7f4e487b7100000000000000000000000000000000000000000000000000000000600052604160045260246000fd5b61276a82612721565b810181811067ffffffffffffffff8211171561278957612788612732565b5b80604052505050565b600061279c612703565b90506127a88282612761565b919050565b600067ffffffffffffffff8211156127c8576127c7612732565b5b6127d182612721565b9050602081019050919050565b82818337600083830152505050565b60006128006127fb846127ad565b612792565b90508281526020810184848401111561281c5761281b61271c565b5b6128278482856127de565b509392505050565b600082601f83011261284457612843612717565b5b81356128548482602086016127ed565b91505092915050565b6000819050919050565b6128708161285d565b811461287b57600080fd5b50565b60008135905061288d81612867565b92915050565b600080600080608085870312156128ad576128ac61270d565b5b600085013567ffffffffffffffff8111156128cb576128ca612712565b5b6128d78782880161282f565b94505060206128e88782880161287e565b93505060406128f98782880161287e565b925050606061290a8782880161287e565b91505092959194509250565b61291f8161285d565b82525050565b600060208201905061293a6000830184612916565b92915050565b600073ffffffffffffffffffffffffffffffffffffffff82169050919050565b600061296b82612940565b9050919050565b61297b81612960565b811461298657600080fd5b50565b60008135905061299881612972565b92915050565b600080604083850312156129b5576129b461270d565b5b60006129c385828601612989565b925050602083013567ffffffffffffffff8111156129e4576129e3612712565b5b6129f08582860161282f565b9150509250929050565b60008115159050919050565b612a0f816129fa565b82525050565b6000602082019050612a2a6000830184612a06565b92915050565b60038110612a3d57600080fd5b50565b600081359050612a4f81612a30565b92915050565b60008060008060808587031215612a6f57612a6e61270d565b5b6000612a7d87828801612989565b9450506020612a8e8782880161287e565b9350506040612a9f87828801612a40565b9250506060612ab08782880161287e565b91505092959194509250565b60008060408385031215612ad357612ad261270d565b5b6000612ae185828601612989565b9250506020612af28582860161287e565b9150509250929050565b7f4e487b7100000000000000000000000000000000000000000000000000000000600052602160045260246000fd5b60038110612b3c57612b3b612afc565b5b50565b6000819050612b4d82612b2b565b919050565b6000612b5d82612b3f565b9050919050565b612b6d81612b52565b82525050565b6000604082019050612b886000830185612b64565b612b956020830184612916565b9392505050565b600060208284031215612bb257612bb161270d565b5b6000612bc08482850161287e565b91505092915050565b600081519050919050565b60005b83811015612bf2578082015181840152602081019050612bd7565b60008484015250505050565b6000612c0982612bc9565b612c138185612660565b9350612c23818560208601612bd4565b612c2c81612721565b840191505092915050565b60006080820190508181036000830152612c518187612bfe565b9050612c606020830186612916565b612c6d6040830185612916565b612c7a6060830184612916565b95945050505050565b60008060008060808587031215612c9d57612c9c61270d565b5b6000612cab87828801612989565b945050602085013567ffffffffffffffff811115612ccc57612ccb612712565b5b612cd88782880161282f565b935050604085013567ffffffffffffffff811115612cf957612cf8612712565b5b612d058782880161282f565b925050606085013567ffffffffffffffff811115612d2657612d25612712565b5b612d328782880161282f565b91505092959194509250565b600082825260208201905092915050565b6000612d5a82612bc9565b612d648185612d3e565b9350612d74818560208601612bd4565b612d7d81612721565b840191505092915050565b60006060830160008301518482036000860152612da58282612d4f565b91505060208301518482036020860152612dbf8282612d4f565b91505060408301518482036040860152612dd98282612d4f565b9150508091505092915050565b60006020820190508181036000830152612e008184612d88565b905092915050565b60006020820190508181036000830152612e228184612bfe565b905092915050565b600060208284031215612e4057612e3f61270d565b5b6000612e4e84828501612989565b91505092915050565b600080600060608486031215612e7057612e6f61270d565b5b600084013567ffffffffffffffff811115612e8e57612e8d612712565b5b612e9a8682870161282f565b935050602084013567ffffffffffffffff811115612ebb57612eba612712565b5b612ec78682870161282f565b925050604084013567ffffffffffffffff811115612ee857612ee7612712565b5b612ef48682870161282f565b9150509250925092565b60006060820190508181036000830152612f188186612bfe565b90508181036020830152612f2c8185612bfe565b90508181036040830152612f408184612bfe565b9050949350505050565b612f5381612960565b82525050565b6000602082019050612f6e6000830184612f4a565b92915050565b7f536f6c6f207065726d697469646f20616c20636f6f7264696e61646f72000000600082015250565b6000612faa601d83612660565b9150612fb582612f74565b602082019050919050565b60006020820190508181036000830152612fd981612f9d565b9050919050565b7f4c617320617369676e617475726120657374c3a1206365727261646100000000600082015250565b6000613016601c83612660565b915061302182612fe0565b602082019050919050565b6000602082019050818103600083015261304581613009565b9050919050565b7f456c206e6f6d627265206465206c61206576616c756163696f6e206e6f20707560008201527f6564652073657220766163696f00000000000000000000000000000000000000602082015250565b60006130a8602d83612660565b91506130b38261304c565b604082019050919050565b600060208201905081810360008301526130d78161309b565b9050919050565b7f4e6f207075656465732074656e657220756e20706f7263656e74616a6520746160008201527f6e20616c746f0000000000000000000000000000000000000000000000000000602082015250565b600061313a602683612660565b9150613145826130de565b604082019050919050565b600060208201905081810360008301526131698161312d565b9050919050565b7f4e487b7100000000000000000000000000000000000000000000000000000000600052602260045260246000fd5b600060028204905060018216806131b757607f821691505b6020821081036131ca576131c9613170565b5b50919050565b60008190508160005260206000209050919050565b60006020601f8301049050919050565b600082821b905092915050565b6000600883026132327fffffffffffffffffffffffffffffffffffffffffffffffffffffffffffffffff826131f5565b61323c86836131f5565b95508019841693508086168417925050509392505050565b6000819050919050565b600061327961327461326f8461285d565b613254565b61285d565b9050919050565b6000819050919050565b6132938361325e565b6132a761329f82613280565b848454613202565b825550505050565b600090565b6132bc6132af565b6132c781848461328a565b505050565b5b818110156132eb576132e06000826132b4565b6001810190506132cd565b5050565b601f82111561333057613301816131d0565b61330a846131e5565b81016020851015613319578190505b61332d613325856131e5565b8301826132cc565b50505b505050565b600082821c905092915050565b600061335360001984600802613335565b1980831691505092915050565b600061336c8383613342565b9150826002028217905092915050565b61338582612bc9565b67ffffffffffffffff81111561339e5761339d612732565b5b6133a8825461319f565b6133b38282856132ef565b600060209050601f8311600181146133e657600084156133d4578287015190505b6133de8582613360565b865550613446565b601f1984166133f4866131d0565b60005b8281101561341c578489015182556001820191506020850194506020810190506133f7565b868310156134395784890151613435601f891682613342565b8355505b6001600288020188555050505b505050505050565b7f4e487b7100000000000000000000000000000000000000000000000000000000600052601160045260246000fd5b60006134888261285d565b91506134938361285d565b92508282039050818111156134ab576134aa61344e565b5b92915050565b7f536f6c6f207065726d697469646f20616c2070726f706965746172696f000000600082015250565b60006134e7601d83612660565b91506134f2826134b1565b602082019050919050565b60006020820190508181036000830152613516816134da565b9050919050565b7f456c206e6f6d6272652064656c2070726f6665736f72206e6f2070756564652060008201527f657374617220766163c3ad6f0000000000000000000000000000000000000000602082015250565b6000613579602c83612660565b91506135848261351d565b604082019050919050565b600060208201905081810360008301526135a88161356c565b9050919050565b7f456c2070726f6665736f72207961206578697374650000000000000000000000600082015250565b60006135e5601583612660565b91506135f0826135af565b602082019050919050565b60006020820190508181036000830152613614816135d8565b9050919050565b7f4e487b7100000000000000000000000000000000000000000000000000000000600052603260045260246000fd5b60006136558261285d565b91507fffffffffffffffffffffffffffffffffffffffffffffffffffffffffffffffff82036136875761368661344e565b5b600182019050919050565b7f536f6c6f207065726d697469646f20616c2070726f6665736f72000000000000600082015250565b60006136c8601a83612660565b91506136d382613692565b602082019050919050565b600060208201905081810360008301526136f7816136bb565b9050919050565b7f536f6c6f2073652070756564656e2063616c696669636172206120756e20616c60008201527f756d6e6f206d6174726963756c61646f2e000000000000000000000000000000602082015250565b600061375a603183612660565b9150613765826136fe565b604082019050919050565b600060208201905081810360008301526137898161374d565b9050919050565b7f4e6f2073652070756564652063616c69666963617220756e61206576616c756160008201527f63696f6e20717565206e6f206578697374652e00000000000000000000000000602082015250565b60006137ec603383612660565b91506137f782613790565b604082019050919050565b6000602082019050818103600083015261381b816137df565b9050919050565b7f4e6f2073652070756564652063616c69666963617220636f6e20756e61206e6f60008201527f7461207375706572696f722061206c61206d6178696d61207065726d6974696460208201527f612e000000000000000000000000000000000000000000000000000000000000604082015250565b60006138a4604283612660565b91506138af82613822565b606082019050919050565b600060208201905081810360008301526138d381613897565b9050919050565b7f456c206e6f6d627265206e6f2070756564652073657220766163696f00000000600082015250565b6000613910601c83612660565b915061391b826138da565b602082019050919050565b6000602082019050818103600083015261393f81613903565b9050919050565b7f456c20444e49206e6f2070756564652073657220766163696f00000000000000600082015250565b600061397c601983612660565b915061398782613946565b602082019050919050565b600060208201905081810360008301526139ab8161396f565b9050919050565b7f59612068617920616c677569656e20636f6e2065736520444e49000000000000600082015250565b60006139e8601a83612660565b91506139f3826139b2565b602082019050919050565b60006020820190508181036000830152613a17816139db565b9050919050565b7f536f6c6f207065726d697469646f206120616c756d6e6f73206d61747269637560008201527f6c61646f73000000000000000000000000000000000000000000000000000000602082015250565b6000613a7a602583612660565b9150613a8582613a1e565b604082019050919050565b60006020820190508181036000830152613aa981613a6d565b9050919050565b7f536f6c6f207065726d697469646f206120616c756d6e6f73206e6f206d61747260008201527f6963756c61646f73000000000000000000000000000000000000000000000000602082015250565b6000613b0c602883612660565b9150613b1782613ab0565b604082019050919050565b60006020820190508181036000830152613b3b81613aff565b9050919050565b7f456c20696e64696365206465206c61206576616c756163696f6e206e6f20657860008201527f697374652e000000000000000000000000000000000000000000000000000000602082015250565b6000613b9e602583612660565b9150613ba982613b42565b604082019050919050565b60006020820190508181036000830152613bcd81613b91565b9050919050565b7f4c6120646972656363696f6e2064656c20636f6f7264696e61646f722070617260008201527f65636520717565206e6f20657320636f72726563746100000000000000000000602082015250565b6000613c30603683612660565b9150613c3b82613bd4565b604082019050919050565b60006020820190508181036000830152613c5f81613c23565b9050919050565b6000613c718261285d565b9150613c7c8361285d565b9250828201905080821115613c9457613c9361344e565b5b92915050565b6000613ca58261285d565b9150613cb08361285d565b9250828202613cbe8161285d565b91508282048414831517613cd557613cd461344e565b5b5092915050565b7f4e487b7100000000000000000000000000000000000000000000000000000000600052601260045260246000fd5b6000613d168261285d565b9150613d218361285d565b925082613d3157613d30613cdc565b5b828204905092915050565b600081905092915050565b6000613d5282612bc9565b613d5c8185613d3c565b9350613d6c818560208601612bd4565b80840191505092915050565b6000613d848284613d47565b91508190509291505056fea264697066735822122016a5fd5c2e3c0f3732db0c2bdf7446345d4b0ce43c0b3128fa3e7574f13ee9c364736f6c63430008130033",
  "immutableReferences": {
    "38": [
      {
        "length": 32,
        "start": 2308
      },
      {
        "length": 32,
        "start": 3911
      },
      {
        "length": 32,
        "start": 6814
      },
      {
        "length": 32,
        "start": 7557
      }
    ]
  },
  "source": "// SPDX-License-Identifier: UNLICENSED\npragma solidity ^0.8.16;\n\n/*\n *\n * @title Contract AsignaturaFull - BDCA - MUIRST 2324\n *\n * Authors:\n * - Carlos Aparicio\n * - Enzo Banchon\n * - Paulina Bravo\n *\n */\ncontract Asignatura {\n    // Enums and Structs\n    enum TipoNota {\n        Empty,\n        NP,\n        Normal\n    }\n    struct DatosAlumno {\n        string nombre;\n        string email;\n        string dni;\n    }\n    struct Evaluacion {\n        string nombre;\n        uint fecha;\n        uint porcentaje;\n        uint nota_minima;\n    }\n    struct Nota {\n        TipoNota tipo;\n        uint calificacion;\n    }\n\n    // simple attrs\n    string public version = \"2023 Full\";\n    string public nombre;\n    string public curso;\n    bool public cerrada;\n\n    // addresses\n    address public immutable owner;\n    address public profesor;\n    address public coordinador;\n\n    // arrays\n    address[] public profesores;\n    address[] public matriculas;\n    Evaluacion[] public evaluaciones;\n\n    // mappings\n    mapping(address => DatosAlumno) public datosAlumno;\n    mapping(address => string) public datosProfesor;\n    mapping(address => mapping(uint => Nota)) public calificaciones;\n\n    /**\n     *\n     * constructor\n     * @dev Deploy contract\n     * @param _nombre   {string memory} Asignatura name\n     * @param _curso    {string memory} Curso acadmico\n     *\n     */\n    constructor(string memory _nombre, string memory _curso) {\n        require(\n            bytes(_nombre).length != 0,\n            \"El nombre de la asignatura no puede ser vacio\"\n        );\n        require(\n            bytes(_curso).length != 0,\n            \"El curso academico de la asignatura no puede ser vacio\"\n        );\n\n        nombre = _nombre;\n        curso = _curso;\n        owner = msg.sender;\n    }\n\n    // ~~~~~~~~~~~~~~~~~~~~~~~~~~~~~~~~~~~~~~~~~~~~~~~~~~~~~~~~~~~~\n    // ~~~~~~~~~~~~~~~~~~~~~~~~~~~~~~~~~~~~~~~~~~~~~~~~~~~~~~~~~~~~\n    // GENERIC METHODS\n    // ~~~~~~~~~~~~~~~~~~~~~~~~~~~~~~~~~~~~~~~~~~~~~~~~~~~~~~~~~~~~\n    // ~~~~~~~~~~~~~~~~~~~~~~~~~~~~~~~~~~~~~~~~~~~~~~~~~~~~~~~~~~~~\n\n    /**\n     *\n     * compareStrings\n     * @dev pure function to compare string memory vars equality\n     * @param _a {string memory}\n     * @param _b {string memory}\n     *\n     */\n    function compareStrings(\n        string memory _a,\n        string memory _b\n    ) private pure returns (bool) {\n        return (keccak256(abi.encodePacked(_a)) ==\n            keccak256(abi.encodePacked(_b)));\n    }\n\n    /**\n     *\n     * doesAlumnoDNIExists\n     * @dev view function to handle whether a alumno's dni is already saved\n     * @param _dni {string memory} Coordinador address\n     *\n     */\n    function doesAlumnoDNIExists(\n        string memory _dni\n    ) private view returns (bool boolOut) {\n        boolOut = false;\n        for (uint i = 0; i < matriculas.length; i++) {\n            if (compareStrings(datosAlumno[matriculas[i]].dni, _dni)) {\n                boolOut = true;\n                break;\n            }\n        }\n    }\n\n    /**\n     *\n     * estaMatriculado\n     * @dev checks whether a alumno, identified by address, is matriculado\n     * @param _alumno {address} alumno address\n     *\n     */\n    function estaMatriculado(address _alumno) private view returns (bool) {\n        string memory _nombre = datosAlumno[_alumno].nombre;\n        return bytes(_nombre).length != 0;\n    }\n\n    /**\n     *\n     * cerrar\n     * @dev cierra la asignatura\n     *\n     */\n    function cerrar() external soloCoordinador {\n        cerrada = true;\n    }\n\n    // ~~~~~~~~~~~~~~~~~~~~~~~~~~~~~~~~~~~~~~~~~~~~~~~~~~~~~~~~~~~~\n    // ~~~~~~~~~~~~~~~~~~~~~~~~~~~~~~~~~~~~~~~~~~~~~~~~~~~~~~~~~~~~\n    // COORDINADOR\n    // ~~~~~~~~~~~~~~~~~~~~~~~~~~~~~~~~~~~~~~~~~~~~~~~~~~~~~~~~~~~~\n    // ~~~~~~~~~~~~~~~~~~~~~~~~~~~~~~~~~~~~~~~~~~~~~~~~~~~~~~~~~~~~\n\n    /**\n     *\n     * setCoordinador\n     * @dev Set address to coordinador\n     * @param _coordinador {address} Coordinador address\n     *\n     */\n    function setCoordinador(\n        address _coordinador\n    ) external soloOwner soloAbierta {\n        require(\n            _coordinador != address(0),\n            unicode\"La direccion del coordinador parece que no es correcta\"\n        );\n        coordinador = _coordinador;\n    }\n\n    // ~~~~~~~~~~~~~~~~~~~~~~~~~~~~~~~~~~~~~~~~~~~~~~~~~~~~~~~~~~~~\n    // ~~~~~~~~~~~~~~~~~~~~~~~~~~~~~~~~~~~~~~~~~~~~~~~~~~~~~~~~~~~~\n    // PROFESOR\n    // ~~~~~~~~~~~~~~~~~~~~~~~~~~~~~~~~~~~~~~~~~~~~~~~~~~~~~~~~~~~~\n    // ~~~~~~~~~~~~~~~~~~~~~~~~~~~~~~~~~~~~~~~~~~~~~~~~~~~~~~~~~~~~\n\n    /**\n     *\n     * addProfesor\n     * @dev Create a new profesor\n     * @param _profesor_address {address}       Direccin del profesor\n     * @param _name             {string memory} Nombre del profesor\n     *\n     */\n    function addProfesor(\n        address _profesor_address,\n        string memory _name\n    ) external soloOwner soloAbierta {\n        require(\n            bytes(_name).length > 0,\n            unicode\"El nombre del profesor no puede estar vaco\"\n        );\n        require(\n            bytes(datosProfesor[_profesor_address]).length == 0,\n            unicode\"El profesor ya existe\"\n        );\n\n        datosProfesor[_profesor_address] = _name;\n        profesores.push(_profesor_address);\n    }\n\n    /**\n     *\n     * matriculasLength\n     * @dev getter de tamao de array de profesores\n     *\n     * @return (uint)\n     *\n     */\n    function profesoresLength() public view returns (uint) {\n        return profesores.length;\n    }\n\n    // ~~~~~~~~~~~~~~~~~~~~~~~~~~~~~~~~~~~~~~~~~~~~~~~~~~~~~~~~~~~~\n    // ~~~~~~~~~~~~~~~~~~~~~~~~~~~~~~~~~~~~~~~~~~~~~~~~~~~~~~~~~~~~\n    // MATRICULAS\n    // ~~~~~~~~~~~~~~~~~~~~~~~~~~~~~~~~~~~~~~~~~~~~~~~~~~~~~~~~~~~~\n    // ~~~~~~~~~~~~~~~~~~~~~~~~~~~~~~~~~~~~~~~~~~~~~~~~~~~~~~~~~~~~\n\n    /**\n     *\n     * automatricula\n     * @dev El alumno se puede matricular\n     *\n     * @param _nombre   {string memory} Nombre de alumno\n     * @param _dni      {string memory} Dni de alumno\n     * @param _email    {string memory} Email de alumno\n     *\n     */\n    function automatricula(\n        string memory _nombre,\n        string memory _dni,\n        string memory _email\n    ) public soloNoMatriculados soloAbierta {\n        require(bytes(_nombre).length != 0, \"El nombre no puede ser vacio\");\n        require(bytes(_dni).length != 0, \"El DNI no puede ser vacio\");\n        if (doesAlumnoDNIExists(_dni)) {\n            revert DNI_Already_Exists(_dni);\n        }\n\n        DatosAlumno memory datos = DatosAlumno(_nombre, _dni, _email);\n        datosAlumno[msg.sender] = datos;\n        matriculas.push(msg.sender);\n    }\n\n    /**\n     *\n     * matricular\n     * @dev El propietario puede matricular a alumnos\n     *\n     * @param _address  {address}       Direccin de alumno\n     * @param _nombre   {string memory} Nombre de alumno\n     * @param _dni      {string memory} Dni de alumno\n     * @param _email    {string memory} Email de alumno\n     *\n     */\n    function matricular(\n        address _address,\n        string memory _nombre,\n        string memory _dni,\n        string memory _email\n    ) public soloOwner soloAbierta {\n        require(bytes(_nombre).length != 0, \"El nombre no puede ser vacio\");\n        require(bytes(_dni).length != 0, \"El DNI no puede ser vacio\");\n        require(!doesAlumnoDNIExists(_dni), \"Ya hay alguien con ese DNI\");\n\n        DatosAlumno memory datos = DatosAlumno(_nombre, _dni, _email);\n        datosAlumno[_address] = datos;\n        matriculas.push(_address);\n    }\n\n    /**\n     *\n     * matriculasLength\n     * @dev getter de tamao de array de matrculas\n     *\n     * @return (uint)\n     *\n     */\n    function matriculasLength() public view returns (uint) {\n        return matriculas.length;\n    }\n\n    /**\n     *\n     * quienSoy\n     * @dev retorna el nombre e email de una persona matriculada\n     *\n     * @return  datos  {DatosAlumno memory}\n     *\n     */\n    function quienSoy()\n        public\n        view\n        soloMatriculados\n        returns (DatosAlumno memory datos)\n    {\n        datos = datosAlumno[msg.sender];\n    }\n\n    // ~~~~~~~~~~~~~~~~~~~~~~~~~~~~~~~~~~~~~~~~~~~~~~~~~~~~~~~~~~~~\n    // ~~~~~~~~~~~~~~~~~~~~~~~~~~~~~~~~~~~~~~~~~~~~~~~~~~~~~~~~~~~~\n    // EVALUACIN\n    // ~~~~~~~~~~~~~~~~~~~~~~~~~~~~~~~~~~~~~~~~~~~~~~~~~~~~~~~~~~~~\n    // ~~~~~~~~~~~~~~~~~~~~~~~~~~~~~~~~~~~~~~~~~~~~~~~~~~~~~~~~~~~~\n\n    /**\n     *\n     * creaEvaluacion\n     * @dev crea una nueva evaluacin para la asignatura\n     *\n     * @param _nombre       {string memory}\n     * @param _fecha        {uint}\n     * @param _porcentaje   {uint}\n     * @param _nota_minima  {uint}\n     *\n     * @return indice       {uint}\n     *\n     */\n    function creaEvaluacion(\n        string memory _nombre,\n        uint _fecha,\n        uint _porcentaje,\n        uint _nota_minima\n    ) public soloCoordinador soloAbierta returns (uint) {\n        require(\n            bytes(_nombre).length != 0,\n            unicode\"El nombre de la evaluacion no puede ser vacio\"\n        );\n        require(\n            _porcentaje < 100,\n            unicode\"No puedes tener un porcentaje tan alto\"\n        );\n\n        evaluaciones.push(\n            Evaluacion(_nombre, _fecha, _porcentaje, _nota_minima)\n        );\n        return evaluaciones.length - 1;\n    }\n\n    function evaluacionesLength() public view returns (uint) {\n        return evaluaciones.length;\n    }\n\n    // ~~~~~~~~~~~~~~~~~~~~~~~~~~~~~~~~~~~~~~~~~~~~~~~~~~~~~~~~~~~~\n    // ~~~~~~~~~~~~~~~~~~~~~~~~~~~~~~~~~~~~~~~~~~~~~~~~~~~~~~~~~~~~\n    // CALIFICACIONES x EVALUACION\n    // ~~~~~~~~~~~~~~~~~~~~~~~~~~~~~~~~~~~~~~~~~~~~~~~~~~~~~~~~~~~~\n    // ~~~~~~~~~~~~~~~~~~~~~~~~~~~~~~~~~~~~~~~~~~~~~~~~~~~~~~~~~~~~\n\n    /**\n     *\n     * califica\n     * @dev califica un alumno en una evaluacin\n     *\n     * @param _alumno       {address}\n     * @param _evaluacion   {uint}\n     * @param _tipo         {TipoNota}\n     * @param _calificacion {uint}\n     *\n     */\n    function califica(\n        address _alumno,\n        uint _evaluacion,\n        TipoNota _tipo,\n        uint _calificacion\n    ) public soloProfesor soloAbierta {\n        require(\n            estaMatriculado(_alumno),\n            \"Solo se pueden calificar a un alumno matriculado.\"\n        );\n        require(\n            _evaluacion < evaluaciones.length,\n            \"No se puede calificar una evaluacion que no existe.\"\n        );\n        require(\n            _calificacion <= 1000,\n            \"No se puede calificar con una nota superior a la maxima permitida.\"\n        );\n\n        Nota memory nota = Nota(_tipo, _calificacion);\n        calificaciones[_alumno][_evaluacion] = nota;\n    }\n\n    /**\n     *\n     * miNota\n     * @dev se consulta una calificacin en una evaluacin por alumno\n     *\n     * @param _evaluacion   {uint}\n     *\n     * @return _tipo         {TipoNota}\n     * @return _calificacion {uint}\n     *\n     */\n    function miNota(\n        uint _evaluacion\n    )\n        public\n        view\n        soloMatriculados\n        returns (TipoNota _tipo, uint _calificacion)\n    {\n        require(\n            _evaluacion < evaluaciones.length,\n            \"El indice de la evaluacion no existe.\"\n        );\n\n        Nota memory nota = calificaciones[msg.sender][_evaluacion];\n        _tipo = nota.tipo;\n        _calificacion = nota.calificacion;\n    }\n\n    // ~~~~~~~~~~~~~~~~~~~~~~~~~~~~~~~~~~~~~~~~~~~~~~~~~~~~~~~~~~~~\n    // ~~~~~~~~~~~~~~~~~~~~~~~~~~~~~~~~~~~~~~~~~~~~~~~~~~~~~~~~~~~~\n    // NOTAS FINALES\n    // ~~~~~~~~~~~~~~~~~~~~~~~~~~~~~~~~~~~~~~~~~~~~~~~~~~~~~~~~~~~~\n    // ~~~~~~~~~~~~~~~~~~~~~~~~~~~~~~~~~~~~~~~~~~~~~~~~~~~~~~~~~~~~\n\n    /**\n     *\n     * notaFinal\n     * @dev se calcula la nota final de un alumno sabiendo su direccin\n     *\n     * @param _address   {address}\n     *\n     * @return tipo_nota         {TipoNota}\n     * @return nota_final {uint}\n     *\n     */\n    function notaFinal(\n        address _address\n    )\n        public\n        view\n        soloCoordinador\n        returns (TipoNota tipo_nota, uint nota_final)\n    {\n        (tipo_nota, nota_final) = computeNotaFinal(_address);\n    }\n\n    /**\n     *\n     * miNotaFinal\n     * @dev se calcula la nota final de un alumno sabiendo su direccin\n     *\n     *\n     * @return tipo_nota         {TipoNota}\n     * @return nota_final {uint}\n     *\n     */\n    function miNotaFinal()\n        public\n        view\n        soloMatriculados\n        returns (TipoNota tipo_nota, uint nota_final)\n    {\n        (tipo_nota, nota_final) = computeNotaFinal(msg.sender);\n    }\n\n    /**\n     *\n     * miNotaFinal\n     * @dev se calcula la nota final de un alumno sabiendo su direccin\n     *\n     * @param _address   {address}\n     *\n     * @return tipo_nota         {TipoNota}\n     * @return nota_final {uint}\n     *\n     */\n    function computeNotaFinal(\n        address _address\n    ) private view returns (TipoNota tipo_nota, uint nota_final) {\n        bool isAllNP = true;\n        bool isAnyNP = false;\n        uint notasPondSum = 0;\n        uint totalPond = 0;\n\n        for (uint i = 0; i < evaluacionesLength(); i++) {\n            // empty case\n            if (calificaciones[_address][i].tipo == TipoNota.Empty) {\n                tipo_nota = TipoNota.Empty;\n                nota_final = 0;\n                break;\n            }\n            if (calificaciones[_address][i].tipo != TipoNota.NP) {\n                isAllNP = false;\n            }\n            if (calificaciones[_address][i].tipo == TipoNota.NP) {\n                tipo_nota = TipoNota.NP;\n                isAnyNP = true;\n            }\n            totalPond += evaluaciones[i].porcentaje;\n            notasPondSum +=\n                calificaciones[_address][i].calificacion *\n                evaluaciones[i].porcentaje;\n        }\n\n        // case np\n        if (isAllNP) {\n            if (tipo_nota == TipoNota.Empty) {\n                tipo_nota = TipoNota.Empty;\n                nota_final = 0;\n            } else {\n                tipo_nota = TipoNota.NP;\n                nota_final = 0;\n            }\n        } else {\n            // case normal\n            tipo_nota = TipoNota.Normal;\n            nota_final = notasPondSum / totalPond;\n\n            // case any np\n            if (isAnyNP && nota_final > 499) {\n                tipo_nota = TipoNota.Normal;\n                nota_final = 499;\n            }\n        }\n    }\n\n    // ~~~~~~~~~~~~~~~~~~~~~~~~~~~~~~~~~~~~~~~~~~~~~~~~~~~~~~~~~~~~\n    // ~~~~~~~~~~~~~~~~~~~~~~~~~~~~~~~~~~~~~~~~~~~~~~~~~~~~~~~~~~~~\n    // MODIFIERS\n    // ~~~~~~~~~~~~~~~~~~~~~~~~~~~~~~~~~~~~~~~~~~~~~~~~~~~~~~~~~~~~\n    // ~~~~~~~~~~~~~~~~~~~~~~~~~~~~~~~~~~~~~~~~~~~~~~~~~~~~~~~~~~~~\n\n    modifier soloOwner() {\n        require(msg.sender == owner, \"Solo permitido al propietario\");\n        _;\n    }\n\n    modifier soloCoordinador() {\n        require(msg.sender == coordinador, \"Solo permitido al coordinador\");\n        _;\n    }\n\n    modifier soloProfesor() {\n        bool hasBeenProfesor = false;\n        for (uint i = 0; i < profesoresLength(); i++) {\n            if (profesores[i] == msg.sender) {\n                hasBeenProfesor = true;\n                break;\n            }\n        }\n        require(hasBeenProfesor, \"Solo permitido al profesor\");\n        _;\n    }\n\n    modifier soloMatriculados() {\n        require(\n            estaMatriculado(msg.sender),\n            \"Solo permitido a alumnos matriculados\"\n        );\n        _;\n    }\n\n    modifier soloNoMatriculados() {\n        require(\n            !estaMatriculado(msg.sender),\n            \"Solo permitido a alumnos no matriculados\"\n        );\n        _;\n    }\n\n    modifier soloAbierta() {\n        require(!cerrada, unicode\"Las asignatura est cerrada\");\n        _;\n    }\n\n    // ~~~~~~~~~~~~~~~~~~~~~~~~~~~~~~~~~~~~~~~~~~~~~~~~~~~~~~~~~~~~\n    // ~~~~~~~~~~~~~~~~~~~~~~~~~~~~~~~~~~~~~~~~~~~~~~~~~~~~~~~~~~~~\n    // CUSTOM ERRORS\n    // ~~~~~~~~~~~~~~~~~~~~~~~~~~~~~~~~~~~~~~~~~~~~~~~~~~~~~~~~~~~~\n    // ~~~~~~~~~~~~~~~~~~~~~~~~~~~~~~~~~~~~~~~~~~~~~~~~~~~~~~~~~~~~\n\n    error DNI_Already_Exists(string dni);\n\n    // ~~~~~~~~~~~~~~~~~~~~~~~~~~~~~~~~~~~~~~~~~~~~~~~~~~~~~~~~~~~~\n    // ~~~~~~~~~~~~~~~~~~~~~~~~~~~~~~~~~~~~~~~~~~~~~~~~~~~~~~~~~~~~\n    // RECEIVE Y FALLBACK\n    // ~~~~~~~~~~~~~~~~~~~~~~~~~~~~~~~~~~~~~~~~~~~~~~~~~~~~~~~~~~~~\n    // ~~~~~~~~~~~~~~~~~~~~~~~~~~~~~~~~~~~~~~~~~~~~~~~~~~~~~~~~~~~~\n\n    receive() external payable {\n        revert(\"No se permite la recepcion de dinero.\");\n    }\n}\n",
  "sourcePath": "/Users/apabook/Downloads/Ejemplo CE 23-17 /AsignaturaLite/truffle/contracts/Asignatura.sol",
  "compiler": {
    "name": "solc",
    "version": "0.8.19+commit.7dd6d404.Emscripten.clang"
  },
  "schemaVersion": "3.4.16",
  "updatedAt": "2023-12-13T17:11:14.553Z",
  "networkType": "ethereum",
  "devdoc": {
    "kind": "dev",
    "methods": {
      "addProfesor(address,string)": {
        "details": "Create a new profesor",
        "params": {
          "_name": "{string memory} Nombre del profesor",
          "_profesor_address": "{address}       Direccin del profesor"
        }
      },
      "automatricula(string,string,string)": {
        "details": "El alumno se puede matricular",
        "params": {
          "_dni": "{string memory} Dni de alumno",
          "_email": "{string memory} Email de alumno",
          "_nombre": "{string memory} Nombre de alumno"
        }
      },
      "califica(address,uint256,uint8,uint256)": {
        "details": "califica un alumno en una evaluacin",
        "params": {
          "_alumno": "{address}",
          "_calificacion": "{uint}",
          "_evaluacion": "{uint}",
          "_tipo": "{TipoNota}"
        }
      },
      "cerrar()": {
        "details": "cierra la asignatura"
      },
      "constructor": {
        "details": "Deploy contract",
        "params": {
          "_curso": "{string memory} Curso acadmico",
          "_nombre": "{string memory} Asignatura name"
        }
      },
      "creaEvaluacion(string,uint256,uint256,uint256)": {
        "details": "crea una nueva evaluacin para la asignatura",
        "params": {
          "_fecha": "{uint}",
          "_nombre": "{string memory}",
          "_nota_minima": "{uint}",
          "_porcentaje": "{uint}"
        },
        "returns": {
          "_0": "indice       {uint}"
        }
      },
      "matricular(address,string,string,string)": {
        "details": "El propietario puede matricular a alumnos",
        "params": {
          "_address": "{address}       Direccin de alumno",
          "_dni": "{string memory} Dni de alumno",
          "_email": "{string memory} Email de alumno",
          "_nombre": "{string memory} Nombre de alumno"
        }
      },
      "matriculasLength()": {
        "details": "getter de tamao de array de matrculas",
        "returns": {
          "_0": "(uint)"
        }
      },
      "miNota(uint256)": {
        "details": "se consulta una calificacin en una evaluacin por alumno",
        "params": {
          "_evaluacion": "{uint}"
        },
        "returns": {
          "_calificacion": "{uint}",
          "_tipo": "        {TipoNota}"
        }
      },
      "miNotaFinal()": {
        "details": "se calcula la nota final de un alumno sabiendo su direccin",
        "returns": {
          "nota_final": "{uint}",
          "tipo_nota": "        {TipoNota}"
        }
      },
      "notaFinal(address)": {
        "details": "se calcula la nota final de un alumno sabiendo su direccin",
        "params": {
          "_address": "{address}"
        },
        "returns": {
          "nota_final": "{uint}",
          "tipo_nota": "        {TipoNota}"
        }
      },
      "profesoresLength()": {
        "details": "getter de tamao de array de profesores",
        "returns": {
          "_0": "(uint)"
        }
      },
      "quienSoy()": {
        "details": "retorna el nombre e email de una persona matriculada",
        "returns": {
          "datos": " {DatosAlumno memory}"
        }
      },
      "setCoordinador(address)": {
        "details": "Set address to coordinador",
        "params": {
          "_coordinador": "{address} Coordinador address"
        }
      }
    },
    "version": 1
  },
  "userdoc": {
    "kind": "user",
    "methods": {
      "addProfesor(address,string)": {
        "notice": "addProfesor"
      },
      "automatricula(string,string,string)": {
        "notice": "automatricula"
      },
      "califica(address,uint256,uint8,uint256)": {
        "notice": "califica"
      },
      "cerrar()": {
        "notice": "cerrar"
      },
      "constructor": {
        "notice": "constructor"
      },
      "creaEvaluacion(string,uint256,uint256,uint256)": {
        "notice": "creaEvaluacion"
      },
      "matricular(address,string,string,string)": {
        "notice": "matricular"
      },
      "matriculasLength()": {
        "notice": "matriculasLength"
      },
      "miNota(uint256)": {
        "notice": "miNota"
      },
      "miNotaFinal()": {
        "notice": "miNotaFinal"
      },
      "notaFinal(address)": {
        "notice": "notaFinal"
      },
      "profesoresLength()": {
        "notice": "matriculasLength"
      },
      "quienSoy()": {
        "notice": "quienSoy"
      },
      "setCoordinador(address)": {
        "notice": "setCoordinador"
      }
    },
    "version": 1
  }
}