{
  "contractName": "Asignatura",
  "abi": [
    {
      "inputs": [
        {
          "internalType": "string",
          "name": "_nombre",
          "type": "string"
        },
        {
          "internalType": "string",
          "name": "_curso",
          "type": "string"
        }
      ],
      "stateMutability": "nonpayable",
      "type": "constructor"
    },
    {
      "inputs": [
        {
          "internalType": "string",
          "name": "dni",
          "type": "string"
        }
      ],
      "name": "DNI_Already_Exists",
      "type": "error"
    },
    {
      "inputs": [
        {
          "internalType": "address",
          "name": "",
          "type": "address"
        },
        {
          "internalType": "uint256",
          "name": "",
          "type": "uint256"
        }
      ],
      "name": "calificaciones",
      "outputs": [
        {
          "internalType": "enum Asignatura.TipoNota",
          "name": "tipo",
          "type": "uint8"
        },
        {
          "internalType": "uint256",
          "name": "calificacion",
          "type": "uint256"
        }
      ],
      "stateMutability": "view",
      "type": "function",
      "constant": true
    },
    {
      "inputs": [],
      "name": "cerrada",
      "outputs": [
        {
          "internalType": "bool",
          "name": "",
          "type": "bool"
        }
      ],
      "stateMutability": "view",
      "type": "function",
      "constant": true
    },
    {
      "inputs": [],
      "name": "coordinador",
      "outputs": [
        {
          "internalType": "address",
          "name": "",
          "type": "address"
        }
      ],
      "stateMutability": "view",
      "type": "function",
      "constant": true
    },
    {
      "inputs": [],
      "name": "curso",
      "outputs": [
        {
          "internalType": "string",
          "name": "",
          "type": "string"
        }
      ],
      "stateMutability": "view",
      "type": "function",
      "constant": true
    },
    {
      "inputs": [
        {
          "internalType": "address",
          "name": "",
          "type": "address"
        }
      ],
      "name": "datosAlumno",
      "outputs": [
        {
          "internalType": "string",
          "name": "nombre",
          "type": "string"
        },
        {
          "internalType": "string",
          "name": "email",
          "type": "string"
        },
        {
          "internalType": "string",
          "name": "dni",
          "type": "string"
        }
      ],
      "stateMutability": "view",
      "type": "function",
      "constant": true
    },
    {
      "inputs": [
        {
          "internalType": "address",
          "name": "",
          "type": "address"
        }
      ],
      "name": "datosProfesor",
      "outputs": [
        {
          "internalType": "string",
          "name": "",
          "type": "string"
        }
      ],
      "stateMutability": "view",
      "type": "function",
      "constant": true
    },
    {
      "inputs": [
        {
          "internalType": "uint256",
          "name": "",
          "type": "uint256"
        }
      ],
      "name": "evaluaciones",
      "outputs": [
        {
          "internalType": "string",
          "name": "nombre",
          "type": "string"
        },
        {
          "internalType": "uint256",
          "name": "fecha",
          "type": "uint256"
        },
        {
          "internalType": "uint256",
          "name": "porcentaje",
          "type": "uint256"
        },
        {
          "internalType": "uint256",
          "name": "nota_minima",
          "type": "uint256"
        }
      ],
      "stateMutability": "view",
      "type": "function",
      "constant": true
    },
    {
      "inputs": [
        {
          "internalType": "uint256",
          "name": "",
          "type": "uint256"
        }
      ],
      "name": "matriculas",
      "outputs": [
        {
          "internalType": "address",
          "name": "",
          "type": "address"
        }
      ],
      "stateMutability": "view",
      "type": "function",
      "constant": true
    },
    {
      "inputs": [],
      "name": "nombre",
      "outputs": [
        {
          "internalType": "string",
          "name": "",
          "type": "string"
        }
      ],
      "stateMutability": "view",
      "type": "function",
      "constant": true
    },
    {
      "inputs": [],
      "name": "owner",
      "outputs": [
        {
          "internalType": "address",
          "name": "",
          "type": "address"
        }
      ],
      "stateMutability": "view",
      "type": "function",
      "constant": true
    },
    {
      "inputs": [],
      "name": "profesor",
      "outputs": [
        {
          "internalType": "address",
          "name": "",
          "type": "address"
        }
      ],
      "stateMutability": "view",
      "type": "function",
      "constant": true
    },
    {
      "inputs": [
        {
          "internalType": "uint256",
          "name": "",
          "type": "uint256"
        }
      ],
      "name": "profesores",
      "outputs": [
        {
          "internalType": "address",
          "name": "",
          "type": "address"
        }
      ],
      "stateMutability": "view",
      "type": "function",
      "constant": true
    },
    {
      "inputs": [],
      "name": "version",
      "outputs": [
        {
          "internalType": "string",
          "name": "",
          "type": "string"
        }
      ],
      "stateMutability": "view",
      "type": "function",
      "constant": true
    },
    {
      "stateMutability": "payable",
      "type": "receive",
      "payable": true
    },
    {
      "inputs": [],
      "name": "cerrar",
      "outputs": [],
      "stateMutability": "nonpayable",
      "type": "function"
    },
    {
      "inputs": [
        {
          "internalType": "address",
          "name": "_coordinador",
          "type": "address"
        }
      ],
      "name": "setCoordinador",
      "outputs": [],
      "stateMutability": "nonpayable",
      "type": "function"
    },
    {
      "inputs": [
        {
          "internalType": "address",
          "name": "_profesor_address",
          "type": "address"
        },
        {
          "internalType": "string",
          "name": "_name",
          "type": "string"
        }
      ],
      "name": "addProfesor",
      "outputs": [],
      "stateMutability": "nonpayable",
      "type": "function"
    },
    {
      "inputs": [],
      "name": "profesoresLength",
      "outputs": [
        {
          "internalType": "uint256",
          "name": "",
          "type": "uint256"
        }
      ],
      "stateMutability": "view",
      "type": "function",
      "constant": true
    },
    {
      "inputs": [
        {
          "internalType": "string",
          "name": "_nombre",
          "type": "string"
        },
        {
          "internalType": "string",
          "name": "_dni",
          "type": "string"
        },
        {
          "internalType": "string",
          "name": "_email",
          "type": "string"
        }
      ],
      "name": "automatricula",
      "outputs": [],
      "stateMutability": "nonpayable",
      "type": "function"
    },
    {
      "inputs": [
        {
          "internalType": "address",
          "name": "_address",
          "type": "address"
        },
        {
          "internalType": "string",
          "name": "_nombre",
          "type": "string"
        },
        {
          "internalType": "string",
          "name": "_dni",
          "type": "string"
        },
        {
          "internalType": "string",
          "name": "_email",
          "type": "string"
        }
      ],
      "name": "matricular",
      "outputs": [],
      "stateMutability": "nonpayable",
      "type": "function"
    },
    {
      "inputs": [],
      "name": "matriculasLength",
      "outputs": [
        {
          "internalType": "uint256",
          "name": "",
          "type": "uint256"
        }
      ],
      "stateMutability": "view",
      "type": "function",
      "constant": true
    },
    {
      "inputs": [],
      "name": "quienSoy",
      "outputs": [
        {
          "components": [
            {
              "internalType": "string",
              "name": "nombre",
              "type": "string"
            },
            {
              "internalType": "string",
              "name": "email",
              "type": "string"
            },
            {
              "internalType": "string",
              "name": "dni",
              "type": "string"
            }
          ],
          "internalType": "struct Asignatura.DatosAlumno",
          "name": "datos",
          "type": "tuple"
        }
      ],
      "stateMutability": "view",
      "type": "function",
      "constant": true
    },
    {
      "inputs": [
        {
          "internalType": "string",
          "name": "_nombre",
          "type": "string"
        },
        {
          "internalType": "uint256",
          "name": "_fecha",
          "type": "uint256"
        },
        {
          "internalType": "uint256",
          "name": "_porcentaje",
          "type": "uint256"
        },
        {
          "internalType": "uint256",
          "name": "_nota_minima",
          "type": "uint256"
        }
      ],
      "name": "creaEvaluacion",
      "outputs": [
        {
          "internalType": "uint256",
          "name": "",
          "type": "uint256"
        }
      ],
      "stateMutability": "nonpayable",
      "type": "function"
    },
    {
      "inputs": [],
      "name": "evaluacionesLength",
      "outputs": [
        {
          "internalType": "uint256",
          "name": "",
          "type": "uint256"
        }
      ],
      "stateMutability": "view",
      "type": "function",
      "constant": true
    },
    {
      "inputs": [
        {
          "internalType": "address",
          "name": "_alumno",
          "type": "address"
        },
        {
          "internalType": "uint256",
          "name": "_evaluacion",
          "type": "uint256"
        },
        {
          "internalType": "enum Asignatura.TipoNota",
          "name": "_tipo",
          "type": "uint8"
        },
        {
          "internalType": "uint256",
          "name": "_calificacion",
          "type": "uint256"
        }
      ],
      "name": "califica",
      "outputs": [],
      "stateMutability": "nonpayable",
      "type": "function"
    },
    {
      "inputs": [
        {
          "internalType": "uint256",
          "name": "_evaluacion",
          "type": "uint256"
        }
      ],
      "name": "miNota",
      "outputs": [
        {
          "internalType": "enum Asignatura.TipoNota",
          "name": "_tipo",
          "type": "uint8"
        },
        {
          "internalType": "uint256",
          "name": "_calificacion",
          "type": "uint256"
        }
      ],
      "stateMutability": "view",
      "type": "function",
      "constant": true
    },
    {
      "inputs": [
        {
          "internalType": "address",
          "name": "_address",
          "type": "address"
        }
      ],
      "name": "notaFinal",
      "outputs": [
        {
          "internalType": "enum Asignatura.TipoNota",
          "name": "tipo_nota",
          "type": "uint8"
        },
        {
          "internalType": "uint256",
          "name": "nota_final",
          "type": "uint256"
        }
      ],
      "stateMutability": "view",
      "type": "function",
      "constant": true
    },
    {
      "inputs": [],
      "name": "miNotaFinal",
      "outputs": [
        {
          "internalType": "enum Asignatura.TipoNota",
          "name": "tipo_nota",
          "type": "uint8"
        },
        {
          "internalType": "uint256",
          "name": "nota_final",
          "type": "uint256"
        }
      ],
      "stateMutability": "view",
      "type": "function",
      "constant": true
    },
    {
      "inputs": [
        {
          "internalType": "address",
          "name": "addressIn",
          "type": "address"
        }
      ],
      "name": "getRoleByAddress",
      "outputs": [
        {
          "internalType": "enum Asignatura.RoleType",
          "name": "roleOut",
          "type": "uint8"
        }
      ],
      "stateMutability": "view",
      "type": "function",
      "constant": true
    }
  ],
  "bytecode": "0x60a06040526040518060400160405280600981526020017f323032332046756c6c0000000000000000000000000000000000000000000000815250600090816200004a9190620003e6565b503480156200005857600080fd5b50604051620048b1380380620048b183398181016040528101906200007e919062000631565b6000825103620000c5576040517f08c379a0000000000000000000000000000000000000000000000000000000008152600401620000bc906200073d565b60405180910390fd5b60008151036200010c576040517f08c379a00000000000000000000000000000000000000000000000000000000081526004016200010390620007d5565b60405180910390fd5b81600190816200011d9190620003e6565b5080600290816200012f9190620003e6565b503373ffffffffffffffffffffffffffffffffffffffff1660808173ffffffffffffffffffffffffffffffffffffffff16815250505050620007f7565b600081519050919050565b7f4e487b7100000000000000000000000000000000000000000000000000000000600052604160045260246000fd5b7f4e487b7100000000000000000000000000000000000000000000000000000000600052602260045260246000fd5b60006002820490506001821680620001ee57607f821691505b602082108103620002045762000203620001a6565b5b50919050565b60008190508160005260206000209050919050565b60006020601f8301049050919050565b600082821b905092915050565b6000600883026200026e7fffffffffffffffffffffffffffffffffffffffffffffffffffffffffffffffff826200022f565b6200027a86836200022f565b95508019841693508086168417925050509392505050565b6000819050919050565b6000819050919050565b6000620002c7620002c1620002bb8462000292565b6200029c565b62000292565b9050919050565b6000819050919050565b620002e383620002a6565b620002fb620002f282620002ce565b8484546200023c565b825550505050565b600090565b6200031262000303565b6200031f818484620002d8565b505050565b5b8181101562000347576200033b60008262000308565b60018101905062000325565b5050565b601f821115620003965762000360816200020a565b6200036b846200021f565b810160208510156200037b578190505b620003936200038a856200021f565b83018262000324565b50505b505050565b600082821c905092915050565b6000620003bb600019846008026200039b565b1980831691505092915050565b6000620003d68383620003a8565b9150826002028217905092915050565b620003f1826200016c565b67ffffffffffffffff8111156200040d576200040c62000177565b5b620004198254620001d5565b620004268282856200034b565b600060209050601f8311600181146200045e576000841562000449578287015190505b620004558582620003c8565b865550620004c5565b601f1984166200046e866200020a565b60005b82811015620004985784890151825560018201915060208501945060208101905062000471565b86831015620004b85784890151620004b4601f891682620003a8565b8355505b6001600288020188555050505b505050505050565b6000604051905090565b600080fd5b600080fd5b600080fd5b600080fd5b6000601f19601f8301169050919050565b6200050782620004eb565b810181811067ffffffffffffffff8211171562000529576200052862000177565b5b80604052505050565b60006200053e620004cd565b90506200054c8282620004fc565b919050565b600067ffffffffffffffff8211156200056f576200056e62000177565b5b6200057a82620004eb565b9050602081019050919050565b60005b83811015620005a75780820151818401526020810190506200058a565b60008484015250505050565b6000620005ca620005c48462000551565b62000532565b905082815260208101848484011115620005e957620005e8620004e6565b5b620005f684828562000587565b509392505050565b600082601f830112620006165762000615620004e1565b5b815162000628848260208601620005b3565b91505092915050565b600080604083850312156200064b576200064a620004d7565b5b600083015167ffffffffffffffff8111156200066c576200066b620004dc565b5b6200067a85828601620005fe565b925050602083015167ffffffffffffffff8111156200069e576200069d620004dc565b5b620006ac85828601620005fe565b9150509250929050565b600082825260208201905092915050565b7f456c206e6f6d627265206465206c6120617369676e6174757261206e6f20707560008201527f6564652073657220766163696f00000000000000000000000000000000000000602082015250565b600062000725602d83620006b6565b91506200073282620006c7565b604082019050919050565b60006020820190508181036000830152620007588162000716565b9050919050565b7f456c20637572736f2061636164656d69636f206465206c6120617369676e617460008201527f757261206e6f2070756564652073657220766163696f00000000000000000000602082015250565b6000620007bd603683620006b6565b9150620007ca826200075f565b604082019050919050565b60006020820190508181036000830152620007f081620007ae565b9050919050565b6080516140826200082f6000396000818161095c01528181610f9f01528181611af801528181611cf80152611fdf01526140826000f3fe6080604052600436106101bb5760003560e01c80637810ff1e116100ec578063d00de47a1161008a578063dab6ff2811610064578063dab6ff28146106bb578063deafcc41146106d2578063df096576146106fd578063f967f98614610728576101fb565b8063d00de47a14610628578063d27c3f3c14610654578063d51b458414610692576101fb565b80639e1d8f4b116100c65780639e1d8f4b14610558578063bc7b35b214610583578063c7918139146105ae578063c8373750146105eb576101fb565b80637810ff1e146104c55780637bff77d4146104f05780638da5cb5b1461052d576101fb565b8063488cf4f5116101595780635aa4ffe6116101335780635aa4ffe6146103e2578063641945bf14610420578063681d4ca61461045d5780636bf8aad614610486576101fb565b8063488cf4f514610361578063537668831461038c57806354fd4d50146103b7576101fb565b806330322c9b1161019557806330322c9b1461029157806342a6dde2146102ba57806344f7a8cc146102f857806347ba31da14610338576101fb565b8063034856d7146102005780631d2e4d2b1461023d57806322c4e39414610266576101fb565b366101fb576040517f08c379a00000000000000000000000000000000000000000000000000000000081526004016101f29061293d565b60405180910390fd5b600080fd5b34801561020c57600080fd5b5061022760048036038101906102229190612aed565b610753565b6040516102349190612b7f565b60405180910390f35b34801561024957600080fd5b50610264600480360381019061025f9190612bf8565b61095a565b005b34801561027257600080fd5b5061027b610bbe565b6040516102889190612c6f565b60405180910390f35b34801561029d57600080fd5b506102b860048036038101906102b39190612caf565b610bd1565b005b3480156102c657600080fd5b506102e160048036038101906102dc9190612d16565b610e97565b6040516102ef929190612dcd565b60405180910390f35b34801561030457600080fd5b5061031f600480360381019061031a9190612df6565b610ed5565b60405161032f9493929190612e91565b60405180910390f35b34801561034457600080fd5b5061035f600480360381019061035a9190612edd565b610f9d565b005b34801561036d57600080fd5b5061037661125a565b6040516103839190612b7f565b60405180910390f35b34801561039857600080fd5b506103a1611267565b6040516103ae9190613040565b60405180910390f35b3480156103c357600080fd5b506103cc6114bc565b6040516103d99190613062565b60405180910390f35b3480156103ee57600080fd5b5061040960048036038101906104049190613084565b61154a565b604051610417929190612dcd565b60405180910390f35b34801561042c57600080fd5b5061044760048036038101906104429190613084565b6115f3565b6040516104549190613062565b60405180910390f35b34801561046957600080fd5b50610484600480360381019061047f91906130b1565b611693565b005b34801561049257600080fd5b506104ad60048036038101906104a89190613084565b61190c565b6040516104bc93929190613158565b60405180910390f35b3480156104d157600080fd5b506104da611ace565b6040516104e791906131b3565b60405180910390f35b3480156104fc57600080fd5b5061051760048036038101906105129190613084565b611af4565b6040516105249190613216565b60405180910390f35b34801561053957600080fd5b50610542611cf6565b60405161054f91906131b3565b60405180910390f35b34801561056457600080fd5b5061056d611d1a565b60405161057a9190612b7f565b60405180910390f35b34801561058f57600080fd5b50610598611d27565b6040516105a59190613062565b60405180910390f35b3480156105ba57600080fd5b506105d560048036038101906105d09190612df6565b611db5565b6040516105e291906131b3565b60405180910390f35b3480156105f757600080fd5b50610612600480360381019061060d9190612df6565b611df4565b60405161061f91906131b3565b60405180910390f35b34801561063457600080fd5b5061063d611e33565b60405161064b929190612dcd565b60405180910390f35b34801561066057600080fd5b5061067b60048036038101906106769190612df6565b611e93565b604051610689929190612dcd565b60405180910390f35b34801561069e57600080fd5b506106b960048036038101906106b49190613084565b611fdd565b005b3480156106c757600080fd5b506106d061216e565b005b3480156106de57600080fd5b506106e761221b565b6040516106f49190613062565b60405180910390f35b34801561070957600080fd5b506107126122a9565b60405161071f91906131b3565b60405180910390f35b34801561073457600080fd5b5061073d6122cf565b60405161074a9190612b7f565b60405180910390f35b6000600460009054906101000a900473ffffffffffffffffffffffffffffffffffffffff1673ffffffffffffffffffffffffffffffffffffffff163373ffffffffffffffffffffffffffffffffffffffff16146107e5576040517f08c379a00000000000000000000000000000000000000000000000000000000081526004016107dc9061327d565b60405180910390fd5b600360009054906101000a900460ff1615610835576040517f08c379a000000000000000000000000000000000000000000000000000000000815260040161082c906132e9565b60405180910390fd5b6000855103610879576040517f08c379a00000000000000000000000000000000000000000000000000000000081526004016108709061337b565b60405180910390fd5b606483106108bc576040517f08c379a00000000000000000000000000000000000000000000000000000000081526004016108b39061340d565b60405180910390fd5b60076040518060800160405280878152602001868152602001858152602001848152509080600181540180825580915050600190039060005260206000209060040201600090919091909150600082015181600001908161091d9190613639565b5060208201518160010155604082015181600201556060820151816003015550506001600780549050610950919061373a565b9050949350505050565b7f000000000000000000000000000000000000000000000000000000000000000073ffffffffffffffffffffffffffffffffffffffff163373ffffffffffffffffffffffffffffffffffffffff16146109e8576040517f08c379a00000000000000000000000000000000000000000000000000000000081526004016109df906137ba565b60405180910390fd5b600360009054906101000a900460ff1615610a38576040517f08c379a0000000000000000000000000000000000000000000000000000000008152600401610a2f906132e9565b60405180910390fd5b6000815111610a7c576040517f08c379a0000000000000000000000000000000000000000000000000000000008152600401610a739061384c565b60405180910390fd5b6000600960008473ffffffffffffffffffffffffffffffffffffffff1673ffffffffffffffffffffffffffffffffffffffff1681526020019081526020016000208054610ac89061345c565b905014610b0a576040517f08c379a0000000000000000000000000000000000000000000000000000000008152600401610b01906138b8565b60405180910390fd5b80600960008473ffffffffffffffffffffffffffffffffffffffff1673ffffffffffffffffffffffffffffffffffffffff1681526020019081526020016000209081610b569190613639565b506005829080600181540180825580915050600190039060005260206000200160009091909190916101000a81548173ffffffffffffffffffffffffffffffffffffffff021916908373ffffffffffffffffffffffffffffffffffffffff1602179055505050565b600360009054906101000a900460ff1681565b6000805b610bdd6122cf565b811015610c71573373ffffffffffffffffffffffffffffffffffffffff1660058281548110610c0f57610c0e6138d8565b5b9060005260206000200160009054906101000a900473ffffffffffffffffffffffffffffffffffffffff1673ffffffffffffffffffffffffffffffffffffffff1603610c5e5760019150610c71565b8080610c6990613907565b915050610bd5565b5080610cb2576040517f08c379a0000000000000000000000000000000000000000000000000000000008152600401610ca99061399b565b60405180910390fd5b600360009054906101000a900460ff1615610d02576040517f08c379a0000000000000000000000000000000000000000000000000000000008152600401610cf9906132e9565b60405180910390fd5b610d0b856122dc565b610d4a576040517f08c379a0000000000000000000000000000000000000000000000000000000008152600401610d4190613a2d565b60405180910390fd5b6007805490508410610d91576040517f08c379a0000000000000000000000000000000000000000000000000000000008152600401610d8890613abf565b60405180910390fd5b6103e8821115610dd6576040517f08c379a0000000000000000000000000000000000000000000000000000000008152600401610dcd90613b77565b60405180910390fd5b60006040518060400160405280856002811115610df657610df5612d56565b5b815260200184815250905080600a60008873ffffffffffffffffffffffffffffffffffffffff1673ffffffffffffffffffffffffffffffffffffffff168152602001908152602001600020600087815260200190815260200160002060008201518160000160006101000a81548160ff02191690836002811115610e7d57610e7c612d56565b5b021790555060208201518160010155905050505050505050565b600a602052816000526040600020602052806000526040600020600091509150508060000160009054906101000a900460ff16908060010154905082565b60078181548110610ee557600080fd5b9060005260206000209060040201600091509050806000018054610f089061345c565b80601f0160208091040260200160405190810160405280929190818152602001828054610f349061345c565b8015610f815780601f10610f5657610100808354040283529160200191610f81565b820191906000526020600020905b815481529060010190602001808311610f6457829003601f168201915b5050505050908060010154908060020154908060030154905084565b7f000000000000000000000000000000000000000000000000000000000000000073ffffffffffffffffffffffffffffffffffffffff163373ffffffffffffffffffffffffffffffffffffffff161461102b576040517f08c379a0000000000000000000000000000000000000000000000000000000008152600401611022906137ba565b60405180910390fd5b600360009054906101000a900460ff161561107b576040517f08c379a0000000000000000000000000000000000000000000000000000000008152600401611072906132e9565b60405180910390fd5b60008351036110bf576040517f08c379a00000000000000000000000000000000000000000000000000000000081526004016110b690613be3565b60405180910390fd5b6000825103611103576040517f08c379a00000000000000000000000000000000000000000000000000000000081526004016110fa90613c4f565b60405180910390fd5b61110c826123ba565b1561114c576040517f08c379a000000000000000000000000000000000000000000000000000000000815260040161114390613cbb565b60405180910390fd5b6000604051806060016040528085815260200184815260200183815250905080600860008773ffffffffffffffffffffffffffffffffffffffff1673ffffffffffffffffffffffffffffffffffffffff16815260200190815260200160002060008201518160000190816111c09190613639565b5060208201518160010190816111d69190613639565b5060408201518160020190816111ec9190613639565b509050506006859080600181540180825580915050600190039060005260206000200160009091909190916101000a81548173ffffffffffffffffffffffffffffffffffffffff021916908373ffffffffffffffffffffffffffffffffffffffff1602179055505050505050565b6000600780549050905090565b61126f612899565b611278336122dc565b6112b7576040517f08c379a00000000000000000000000000000000000000000000000000000000081526004016112ae90613d4d565b60405180910390fd5b600860003373ffffffffffffffffffffffffffffffffffffffff1673ffffffffffffffffffffffffffffffffffffffff1681526020019081526020016000206040518060600160405290816000820180546113119061345c565b80601f016020809104026020016040519081016040528092919081815260200182805461133d9061345c565b801561138a5780601f1061135f5761010080835404028352916020019161138a565b820191906000526020600020905b81548152906001019060200180831161136d57829003601f168201915b505050505081526020016001820180546113a39061345c565b80601f01602080910402602001604051908101604052809291908181526020018280546113cf9061345c565b801561141c5780601f106113f15761010080835404028352916020019161141c565b820191906000526020600020905b8154815290600101906020018083116113ff57829003601f168201915b505050505081526020016002820180546114359061345c565b80601f01602080910402602001604051908101604052809291908181526020018280546114619061345c565b80156114ae5780601f10611483576101008083540402835291602001916114ae565b820191906000526020600020905b81548152906001019060200180831161149157829003601f168201915b505050505081525050905090565b600080546114c99061345c565b80601f01602080910402602001604051908101604052809291908181526020018280546114f59061345c565b80156115425780601f1061151757610100808354040283529160200191611542565b820191906000526020600020905b81548152906001019060200180831161152557829003601f168201915b505050505081565b600080600460009054906101000a900473ffffffffffffffffffffffffffffffffffffffff1673ffffffffffffffffffffffffffffffffffffffff163373ffffffffffffffffffffffffffffffffffffffff16146115dd576040517f08c379a00000000000000000000000000000000000000000000000000000000081526004016115d49061327d565b60405180910390fd5b6115e683612504565b8092508193505050915091565b600960205280600052604060002060009150905080546116129061345c565b80601f016020809104026020016040519081016040528092919081815260200182805461163e9061345c565b801561168b5780601f106116605761010080835404028352916020019161168b565b820191906000526020600020905b81548152906001019060200180831161166e57829003601f168201915b505050505081565b61169c336122dc565b156116dc576040517f08c379a00000000000000000000000000000000000000000000000000000000081526004016116d390613ddf565b60405180910390fd5b600360009054906101000a900460ff161561172c576040517f08c379a0000000000000000000000000000000000000000000000000000000008152600401611723906132e9565b60405180910390fd5b6000835103611770576040517f08c379a000000000000000000000000000000000000000000000000000000000815260040161176790613be3565b60405180910390fd5b60008251036117b4576040517f08c379a00000000000000000000000000000000000000000000000000000000081526004016117ab90613c4f565b60405180910390fd5b6117bd826123ba565b156117ff57816040517f9f7c94580000000000000000000000000000000000000000000000000000000081526004016117f69190613062565b60405180910390fd5b6000604051806060016040528085815260200184815260200183815250905080600860003373ffffffffffffffffffffffffffffffffffffffff1673ffffffffffffffffffffffffffffffffffffffff16815260200190815260200160002060008201518160000190816118739190613639565b5060208201518160010190816118899190613639565b50604082015181600201908161189f9190613639565b509050506006339080600181540180825580915050600190039060005260206000200160009091909190916101000a81548173ffffffffffffffffffffffffffffffffffffffff021916908373ffffffffffffffffffffffffffffffffffffffff16021790555050505050565b600860205280600052604060002060009150905080600001805461192f9061345c565b80601f016020809104026020016040519081016040528092919081815260200182805461195b9061345c565b80156119a85780601f1061197d576101008083540402835291602001916119a8565b820191906000526020600020905b81548152906001019060200180831161198b57829003601f168201915b5050505050908060010180546119bd9061345c565b80601f01602080910402602001604051908101604052809291908181526020018280546119e99061345c565b8015611a365780601f10611a0b57610100808354040283529160200191611a36565b820191906000526020600020905b815481529060010190602001808311611a1957829003601f168201915b505050505090806002018054611a4b9061345c565b80601f0160208091040260200160405190810160405280929190818152602001828054611a779061345c565b8015611ac45780601f10611a9957610100808354040283529160200191611ac4565b820191906000526020600020905b815481529060010190602001808311611aa757829003601f168201915b5050505050905083565b600460009054906101000a900473ffffffffffffffffffffffffffffffffffffffff1681565b60007f000000000000000000000000000000000000000000000000000000000000000073ffffffffffffffffffffffffffffffffffffffff168273ffffffffffffffffffffffffffffffffffffffff1603611b525760049050611cf1565b600460009054906101000a900473ffffffffffffffffffffffffffffffffffffffff1673ffffffffffffffffffffffffffffffffffffffff168273ffffffffffffffffffffffffffffffffffffffff1603611bb05760039050611cf1565b60005b611bbb6122cf565b811015611c4f578273ffffffffffffffffffffffffffffffffffffffff1660058281548110611bed57611bec6138d8565b5b9060005260206000200160009054906101000a900473ffffffffffffffffffffffffffffffffffffffff1673ffffffffffffffffffffffffffffffffffffffff1603611c3c5760029150611c4f565b8080611c4790613907565b915050611bb3565b5060005b611c5b611d1a565b811015611cef578273ffffffffffffffffffffffffffffffffffffffff1660068281548110611c8d57611c8c6138d8565b5b9060005260206000200160009054906101000a900473ffffffffffffffffffffffffffffffffffffffff1673ffffffffffffffffffffffffffffffffffffffff1603611cdc5760019150611cef565b8080611ce790613907565b915050611c53565b505b919050565b7f000000000000000000000000000000000000000000000000000000000000000081565b6000600680549050905090565b60018054611d349061345c565b80601f0160208091040260200160405190810160405280929190818152602001828054611d609061345c565b8015611dad5780601f10611d8257610100808354040283529160200191611dad565b820191906000526020600020905b815481529060010190602001808311611d9057829003601f168201915b505050505081565b60068181548110611dc557600080fd5b906000526020600020016000915054906101000a900473ffffffffffffffffffffffffffffffffffffffff1681565b60058181548110611e0457600080fd5b906000526020600020016000915054906101000a900473ffffffffffffffffffffffffffffffffffffffff1681565b600080611e3f336122dc565b611e7e576040517f08c379a0000000000000000000000000000000000000000000000000000000008152600401611e7590613d4d565b60405180910390fd5b611e8733612504565b80925081935050509091565b600080611e9f336122dc565b611ede576040517f08c379a0000000000000000000000000000000000000000000000000000000008152600401611ed590613d4d565b60405180910390fd5b6007805490508310611f25576040517f08c379a0000000000000000000000000000000000000000000000000000000008152600401611f1c90613e71565b60405180910390fd5b6000600a60003373ffffffffffffffffffffffffffffffffffffffff1673ffffffffffffffffffffffffffffffffffffffff16815260200190815260200160002060008581526020019081526020016000206040518060400160405290816000820160009054906101000a900460ff166002811115611fa757611fa6612d56565b5b6002811115611fb957611fb8612d56565b5b81526020016001820154815250509050806000015192508060200151915050915091565b7f000000000000000000000000000000000000000000000000000000000000000073ffffffffffffffffffffffffffffffffffffffff163373ffffffffffffffffffffffffffffffffffffffff161461206b576040517f08c379a0000000000000000000000000000000000000000000000000000000008152600401612062906137ba565b60405180910390fd5b600360009054906101000a900460ff16156120bb576040517f08c379a00000000000000000000000000000000000000000000000000000000081526004016120b2906132e9565b60405180910390fd5b600073ffffffffffffffffffffffffffffffffffffffff168173ffffffffffffffffffffffffffffffffffffffff160361212a576040517f08c379a000000000000000000000000000000000000000000000000000000000815260040161212190613f03565b60405180910390fd5b80600460006101000a81548173ffffffffffffffffffffffffffffffffffffffff021916908373ffffffffffffffffffffffffffffffffffffffff16021790555050565b600460009054906101000a900473ffffffffffffffffffffffffffffffffffffffff1673ffffffffffffffffffffffffffffffffffffffff163373ffffffffffffffffffffffffffffffffffffffff16146121fe576040517f08c379a00000000000000000000000000000000000000000000000000000000081526004016121f59061327d565b60405180910390fd5b6001600360006101000a81548160ff021916908315150217905550565b600280546122289061345c565b80601f01602080910402602001604051908101604052809291908181526020018280546122549061345c565b80156122a15780601f10612276576101008083540402835291602001916122a1565b820191906000526020600020905b81548152906001019060200180831161228457829003601f168201915b505050505081565b600360019054906101000a900473ffffffffffffffffffffffffffffffffffffffff1681565b6000600580549050905090565b600080600860008473ffffffffffffffffffffffffffffffffffffffff1673ffffffffffffffffffffffffffffffffffffffff168152602001908152602001600020600001805461232c9061345c565b80601f01602080910402602001604051908101604052809291908181526020018280546123589061345c565b80156123a55780601f1061237a576101008083540402835291602001916123a5565b820191906000526020600020905b81548152906001019060200180831161238857829003601f168201915b50505050509050600081511415915050919050565b6000805b6006805490508110156124fe576124dd60086000600684815481106123e6576123e56138d8565b5b9060005260206000200160009054906101000a900473ffffffffffffffffffffffffffffffffffffffff1673ffffffffffffffffffffffffffffffffffffffff1673ffffffffffffffffffffffffffffffffffffffff16815260200190815260200160002060020180546124599061345c565b80601f01602080910402602001604051908101604052809291908181526020018280546124859061345c565b80156124d25780601f106124a7576101008083540402835291602001916124d2565b820191906000526020600020905b8154815290600101906020018083116124b557829003601f168201915b505050505084612840565b156124eb57600191506124fe565b80806124f690613907565b9150506123be565b50919050565b6000806000600190506000806000805b61251c61125a565b8110156127b9576000600281111561253757612536612d56565b5b600a60008a73ffffffffffffffffffffffffffffffffffffffff1673ffffffffffffffffffffffffffffffffffffffff168152602001908152602001600020600083815260200190815260200160002060000160009054906101000a900460ff1660028111156125aa576125a9612d56565b5b036125bc5760009650600095506127b9565b600160028111156125d0576125cf612d56565b5b600a60008a73ffffffffffffffffffffffffffffffffffffffff1673ffffffffffffffffffffffffffffffffffffffff168152602001908152602001600020600083815260200190815260200160002060000160009054906101000a900460ff16600281111561264357612642612d56565b5b1461264d57600094505b6001600281111561266157612660612d56565b5b600a60008a73ffffffffffffffffffffffffffffffffffffffff1673ffffffffffffffffffffffffffffffffffffffff168152602001908152602001600020600083815260200190815260200160002060000160009054906101000a900460ff1660028111156126d4576126d3612d56565b5b036126e25760019650600193505b600781815481106126f6576126f56138d8565b5b906000526020600020906004020160020154826127139190613f23565b915060078181548110612729576127286138d8565b5b906000526020600020906004020160020154600a60008a73ffffffffffffffffffffffffffffffffffffffff1673ffffffffffffffffffffffffffffffffffffffff1681526020019081526020016000206000838152602001908152602001600020600101546127999190613f57565b836127a49190613f23565b925080806127b190613907565b915050612514565b50831561280757600060028111156127d4576127d3612d56565b5b8660028111156127e7576127e6612d56565b5b036127f9576000955060009450612802565b60019550600094505b612837565b6002955080826128179190613fc8565b945082801561282757506101f385115b1561283657600295506101f394505b5b50505050915091565b6000816040516020016128539190614035565b604051602081830303815290604052805190602001208360405160200161287a9190614035565b6040516020818303038152906040528051906020012014905092915050565b60405180606001604052806060815260200160608152602001606081525090565b600082825260208201905092915050565b7f4e6f207365207065726d697465206c6120726563657063696f6e20646520646960008201527f6e65726f2e000000000000000000000000000000000000000000000000000000602082015250565b60006129276025836128ba565b9150612932826128cb565b604082019050919050565b600060208201905081810360008301526129568161291a565b9050919050565b6000604051905090565b600080fd5b600080fd5b600080fd5b600080fd5b6000601f19601f8301169050919050565b7f4e487b7100000000000000000000000000000000000000000000000000000000600052604160045260246000fd5b6129c48261297b565b810181811067ffffffffffffffff821117156129e3576129e261298c565b5b80604052505050565b60006129f661295d565b9050612a0282826129bb565b919050565b600067ffffffffffffffff821115612a2257612a2161298c565b5b612a2b8261297b565b9050602081019050919050565b82818337600083830152505050565b6000612a5a612a5584612a07565b6129ec565b905082815260208101848484011115612a7657612a75612976565b5b612a81848285612a38565b509392505050565b600082601f830112612a9e57612a9d612971565b5b8135612aae848260208601612a47565b91505092915050565b6000819050919050565b612aca81612ab7565b8114612ad557600080fd5b50565b600081359050612ae781612ac1565b92915050565b60008060008060808587031215612b0757612b06612967565b5b600085013567ffffffffffffffff811115612b2557612b2461296c565b5b612b3187828801612a89565b9450506020612b4287828801612ad8565b9350506040612b5387828801612ad8565b9250506060612b6487828801612ad8565b91505092959194509250565b612b7981612ab7565b82525050565b6000602082019050612b946000830184612b70565b92915050565b600073ffffffffffffffffffffffffffffffffffffffff82169050919050565b6000612bc582612b9a565b9050919050565b612bd581612bba565b8114612be057600080fd5b50565b600081359050612bf281612bcc565b92915050565b60008060408385031215612c0f57612c0e612967565b5b6000612c1d85828601612be3565b925050602083013567ffffffffffffffff811115612c3e57612c3d61296c565b5b612c4a85828601612a89565b9150509250929050565b60008115159050919050565b612c6981612c54565b82525050565b6000602082019050612c846000830184612c60565b92915050565b60038110612c9757600080fd5b50565b600081359050612ca981612c8a565b92915050565b60008060008060808587031215612cc957612cc8612967565b5b6000612cd787828801612be3565b9450506020612ce887828801612ad8565b9350506040612cf987828801612c9a565b9250506060612d0a87828801612ad8565b91505092959194509250565b60008060408385031215612d2d57612d2c612967565b5b6000612d3b85828601612be3565b9250506020612d4c85828601612ad8565b9150509250929050565b7f4e487b7100000000000000000000000000000000000000000000000000000000600052602160045260246000fd5b60038110612d9657612d95612d56565b5b50565b6000819050612da782612d85565b919050565b6000612db782612d99565b9050919050565b612dc781612dac565b82525050565b6000604082019050612de26000830185612dbe565b612def6020830184612b70565b9392505050565b600060208284031215612e0c57612e0b612967565b5b6000612e1a84828501612ad8565b91505092915050565b600081519050919050565b60005b83811015612e4c578082015181840152602081019050612e31565b60008484015250505050565b6000612e6382612e23565b612e6d81856128ba565b9350612e7d818560208601612e2e565b612e868161297b565b840191505092915050565b60006080820190508181036000830152612eab8187612e58565b9050612eba6020830186612b70565b612ec76040830185612b70565b612ed46060830184612b70565b95945050505050565b60008060008060808587031215612ef757612ef6612967565b5b6000612f0587828801612be3565b945050602085013567ffffffffffffffff811115612f2657612f2561296c565b5b612f3287828801612a89565b935050604085013567ffffffffffffffff811115612f5357612f5261296c565b5b612f5f87828801612a89565b925050606085013567ffffffffffffffff811115612f8057612f7f61296c565b5b612f8c87828801612a89565b91505092959194509250565b600082825260208201905092915050565b6000612fb482612e23565b612fbe8185612f98565b9350612fce818560208601612e2e565b612fd78161297b565b840191505092915050565b60006060830160008301518482036000860152612fff8282612fa9565b915050602083015184820360208601526130198282612fa9565b915050604083015184820360408601526130338282612fa9565b9150508091505092915050565b6000602082019050818103600083015261305a8184612fe2565b905092915050565b6000602082019050818103600083015261307c8184612e58565b905092915050565b60006020828403121561309a57613099612967565b5b60006130a884828501612be3565b91505092915050565b6000806000606084860312156130ca576130c9612967565b5b600084013567ffffffffffffffff8111156130e8576130e761296c565b5b6130f486828701612a89565b935050602084013567ffffffffffffffff8111156131155761311461296c565b5b61312186828701612a89565b925050604084013567ffffffffffffffff8111156131425761314161296c565b5b61314e86828701612a89565b9150509250925092565b600060608201905081810360008301526131728186612e58565b905081810360208301526131868185612e58565b9050818103604083015261319a8184612e58565b9050949350505050565b6131ad81612bba565b82525050565b60006020820190506131c860008301846131a4565b92915050565b600581106131df576131de612d56565b5b50565b60008190506131f0826131ce565b919050565b6000613200826131e2565b9050919050565b613210816131f5565b82525050565b600060208201905061322b6000830184613207565b92915050565b7f536f6c6f207065726d697469646f20616c20636f6f7264696e61646f72000000600082015250565b6000613267601d836128ba565b915061327282613231565b602082019050919050565b600060208201905081810360008301526132968161325a565b9050919050565b7f4c617320617369676e617475726120657374c3a1206365727261646100000000600082015250565b60006132d3601c836128ba565b91506132de8261329d565b602082019050919050565b60006020820190508181036000830152613302816132c6565b9050919050565b7f456c206e6f6d627265206465206c61206576616c756163696f6e206e6f20707560008201527f6564652073657220766163696f00000000000000000000000000000000000000602082015250565b6000613365602d836128ba565b915061337082613309565b604082019050919050565b6000602082019050818103600083015261339481613358565b9050919050565b7f4e6f207075656465732074656e657220756e20706f7263656e74616a6520746160008201527f6e20616c746f0000000000000000000000000000000000000000000000000000602082015250565b60006133f76026836128ba565b91506134028261339b565b604082019050919050565b60006020820190508181036000830152613426816133ea565b9050919050565b7f4e487b7100000000000000000000000000000000000000000000000000000000600052602260045260246000fd5b6000600282049050600182168061347457607f821691505b6020821081036134875761348661342d565b5b50919050565b60008190508160005260206000209050919050565b60006020601f8301049050919050565b600082821b905092915050565b6000600883026134ef7fffffffffffffffffffffffffffffffffffffffffffffffffffffffffffffffff826134b2565b6134f986836134b2565b95508019841693508086168417925050509392505050565b6000819050919050565b600061353661353161352c84612ab7565b613511565b612ab7565b9050919050565b6000819050919050565b6135508361351b565b61356461355c8261353d565b8484546134bf565b825550505050565b600090565b61357961356c565b613584818484613547565b505050565b5b818110156135a85761359d600082613571565b60018101905061358a565b5050565b601f8211156135ed576135be8161348d565b6135c7846134a2565b810160208510156135d6578190505b6135ea6135e2856134a2565b830182613589565b50505b505050565b600082821c905092915050565b6000613610600019846008026135f2565b1980831691505092915050565b600061362983836135ff565b9150826002028217905092915050565b61364282612e23565b67ffffffffffffffff81111561365b5761365a61298c565b5b613665825461345c565b6136708282856135ac565b600060209050601f8311600181146136a35760008415613691578287015190505b61369b858261361d565b865550613703565b601f1984166136b18661348d565b60005b828110156136d9578489015182556001820191506020850194506020810190506136b4565b868310156136f657848901516136f2601f8916826135ff565b8355505b6001600288020188555050505b505050505050565b7f4e487b7100000000000000000000000000000000000000000000000000000000600052601160045260246000fd5b600061374582612ab7565b915061375083612ab7565b92508282039050818111156137685761376761370b565b5b92915050565b7f536f6c6f207065726d697469646f20616c2070726f706965746172696f000000600082015250565b60006137a4601d836128ba565b91506137af8261376e565b602082019050919050565b600060208201905081810360008301526137d381613797565b9050919050565b7f456c206e6f6d6272652064656c2070726f6665736f72206e6f2070756564652060008201527f657374617220766163c3ad6f0000000000000000000000000000000000000000602082015250565b6000613836602c836128ba565b9150613841826137da565b604082019050919050565b6000602082019050818103600083015261386581613829565b9050919050565b7f456c2070726f6665736f72207961206578697374650000000000000000000000600082015250565b60006138a26015836128ba565b91506138ad8261386c565b602082019050919050565b600060208201905081810360008301526138d181613895565b9050919050565b7f4e487b7100000000000000000000000000000000000000000000000000000000600052603260045260246000fd5b600061391282612ab7565b91507fffffffffffffffffffffffffffffffffffffffffffffffffffffffffffffffff82036139445761394361370b565b5b600182019050919050565b7f536f6c6f207065726d697469646f20616c2070726f6665736f72000000000000600082015250565b6000613985601a836128ba565b91506139908261394f565b602082019050919050565b600060208201905081810360008301526139b481613978565b9050919050565b7f536f6c6f2073652070756564656e2063616c696669636172206120756e20616c60008201527f756d6e6f206d6174726963756c61646f2e000000000000000000000000000000602082015250565b6000613a176031836128ba565b9150613a22826139bb565b604082019050919050565b60006020820190508181036000830152613a4681613a0a565b9050919050565b7f4e6f2073652070756564652063616c69666963617220756e61206576616c756160008201527f63696f6e20717565206e6f206578697374652e00000000000000000000000000602082015250565b6000613aa96033836128ba565b9150613ab482613a4d565b604082019050919050565b60006020820190508181036000830152613ad881613a9c565b9050919050565b7f4e6f2073652070756564652063616c69666963617220636f6e20756e61206e6f60008201527f7461207375706572696f722061206c61206d6178696d61207065726d6974696460208201527f612e000000000000000000000000000000000000000000000000000000000000604082015250565b6000613b616042836128ba565b9150613b6c82613adf565b606082019050919050565b60006020820190508181036000830152613b9081613b54565b9050919050565b7f456c206e6f6d627265206e6f2070756564652073657220766163696f00000000600082015250565b6000613bcd601c836128ba565b9150613bd882613b97565b602082019050919050565b60006020820190508181036000830152613bfc81613bc0565b9050919050565b7f456c20444e49206e6f2070756564652073657220766163696f00000000000000600082015250565b6000613c396019836128ba565b9150613c4482613c03565b602082019050919050565b60006020820190508181036000830152613c6881613c2c565b9050919050565b7f59612068617920616c677569656e20636f6e2065736520444e49000000000000600082015250565b6000613ca5601a836128ba565b9150613cb082613c6f565b602082019050919050565b60006020820190508181036000830152613cd481613c98565b9050919050565b7f536f6c6f207065726d697469646f206120616c756d6e6f73206d61747269637560008201527f6c61646f73000000000000000000000000000000000000000000000000000000602082015250565b6000613d376025836128ba565b9150613d4282613cdb565b604082019050919050565b60006020820190508181036000830152613d6681613d2a565b9050919050565b7f536f6c6f207065726d697469646f206120616c756d6e6f73206e6f206d61747260008201527f6963756c61646f73000000000000000000000000000000000000000000000000602082015250565b6000613dc96028836128ba565b9150613dd482613d6d565b604082019050919050565b60006020820190508181036000830152613df881613dbc565b9050919050565b7f456c20696e64696365206465206c61206576616c756163696f6e206e6f20657860008201527f697374652e000000000000000000000000000000000000000000000000000000602082015250565b6000613e5b6025836128ba565b9150613e6682613dff565b604082019050919050565b60006020820190508181036000830152613e8a81613e4e565b9050919050565b7f4c6120646972656363696f6e2064656c20636f6f7264696e61646f722070617260008201527f65636520717565206e6f20657320636f72726563746100000000000000000000602082015250565b6000613eed6036836128ba565b9150613ef882613e91565b604082019050919050565b60006020820190508181036000830152613f1c81613ee0565b9050919050565b6000613f2e82612ab7565b9150613f3983612ab7565b9250828201905080821115613f5157613f5061370b565b5b92915050565b6000613f6282612ab7565b9150613f6d83612ab7565b9250828202613f7b81612ab7565b91508282048414831517613f9257613f9161370b565b5b5092915050565b7f4e487b7100000000000000000000000000000000000000000000000000000000600052601260045260246000fd5b6000613fd382612ab7565b9150613fde83612ab7565b925082613fee57613fed613f99565b5b828204905092915050565b600081905092915050565b600061400f82612e23565b6140198185613ff9565b9350614029818560208601612e2e565b80840191505092915050565b60006140418284614004565b91508190509291505056fea2646970667358221220792ed9a3a38a4894c32863a7361e10ad28d07ef98a7b8703de316b654c2803ac64736f6c63430008130033",
  "immutableReferences": {
    "44": [
      {
        "length": 32,
        "start": 2396
      },
      {
        "length": 32,
        "start": 3999
      },
      {
        "length": 32,
        "start": 6904
      },
      {
        "length": 32,
        "start": 7416
      },
      {
        "length": 32,
        "start": 8159
      }
    ]
  },
  "source": "// SPDX-License-Identifier: UNLICENSED\npragma solidity ^0.8.16;\n\n/*\n *\n * @title Contract AsignaturaFull - BDCA - MUIRST 2324\n *\n * Authors:\n * - Carlos Aparicio\n * - Enzo Banchon\n * - Paulina Bravo\n *\n */\ncontract Asignatura {\n    // Enums and Structs\n    enum TipoNota {\n        Empty,\n        NP,\n        Normal\n    }\n    enum RoleType {\n        NotRecognized,\n        Student,\n        Professor,\n        Coordinator,\n        Owner\n    }\n    struct DatosAlumno {\n        string nombre;\n        string email;\n        string dni;\n    }\n    struct Evaluacion {\n        string nombre;\n        uint fecha;\n        uint porcentaje;\n        uint nota_minima;\n    }\n    struct Nota {\n        TipoNota tipo;\n        uint calificacion;\n    }\n\n    // simple attrs\n    string public version = \"2023 Full\";\n    string public nombre;\n    string public curso;\n    bool public cerrada;\n\n    // addresses\n    address public immutable owner;\n    address public profesor;\n    address public coordinador;\n\n    // arrays\n    address[] public profesores;\n    address[] public matriculas;\n    Evaluacion[] public evaluaciones;\n\n    // mappings\n    mapping(address => DatosAlumno) public datosAlumno;\n    mapping(address => string) public datosProfesor;\n    mapping(address => mapping(uint => Nota)) public calificaciones;\n\n    /**\n     *\n     * constructor\n     * @dev Deploy contract\n     * @param _nombre   {string memory} Asignatura name\n     * @param _curso    {string memory} Curso acadmico\n     *\n     */\n    constructor(string memory _nombre, string memory _curso) {\n        require(\n            bytes(_nombre).length != 0,\n            \"El nombre de la asignatura no puede ser vacio\"\n        );\n        require(\n            bytes(_curso).length != 0,\n            \"El curso academico de la asignatura no puede ser vacio\"\n        );\n\n        nombre = _nombre;\n        curso = _curso;\n        owner = msg.sender;\n    }\n\n    // ~~~~~~~~~~~~~~~~~~~~~~~~~~~~~~~~~~~~~~~~~~~~~~~~~~~~~~~~~~~~\n    // ~~~~~~~~~~~~~~~~~~~~~~~~~~~~~~~~~~~~~~~~~~~~~~~~~~~~~~~~~~~~\n    // GENERIC METHODS\n    // ~~~~~~~~~~~~~~~~~~~~~~~~~~~~~~~~~~~~~~~~~~~~~~~~~~~~~~~~~~~~\n    // ~~~~~~~~~~~~~~~~~~~~~~~~~~~~~~~~~~~~~~~~~~~~~~~~~~~~~~~~~~~~\n\n    /**\n     *\n     * compareStrings\n     * @dev pure function to compare string memory vars equality\n     * @param _a {string memory}\n     * @param _b {string memory}\n     *\n     */\n    function compareStrings(\n        string memory _a,\n        string memory _b\n    ) private pure returns (bool) {\n        return (keccak256(abi.encodePacked(_a)) ==\n            keccak256(abi.encodePacked(_b)));\n    }\n\n    /**\n     *\n     * doesAlumnoDNIExists\n     * @dev view function to handle whether a alumno's dni is already saved\n     * @param _dni {string memory} Coordinador address\n     *\n     */\n    function doesAlumnoDNIExists(\n        string memory _dni\n    ) private view returns (bool boolOut) {\n        boolOut = false;\n        for (uint i = 0; i < matriculas.length; i++) {\n            if (compareStrings(datosAlumno[matriculas[i]].dni, _dni)) {\n                boolOut = true;\n                break;\n            }\n        }\n    }\n\n    /**\n     *\n     * estaMatriculado\n     * @dev checks whether a alumno, identified by address, is matriculado\n     * @param _alumno {address} alumno address\n     *\n     */\n    function estaMatriculado(address _alumno) private view returns (bool) {\n        string memory _nombre = datosAlumno[_alumno].nombre;\n        return bytes(_nombre).length != 0;\n    }\n\n    /**\n     *\n     * cerrar\n     * @dev cierra la asignatura\n     *\n     */\n    function cerrar() external soloCoordinador {\n        cerrada = true;\n    }\n\n    // ~~~~~~~~~~~~~~~~~~~~~~~~~~~~~~~~~~~~~~~~~~~~~~~~~~~~~~~~~~~~\n    // ~~~~~~~~~~~~~~~~~~~~~~~~~~~~~~~~~~~~~~~~~~~~~~~~~~~~~~~~~~~~\n    // COORDINADOR\n    // ~~~~~~~~~~~~~~~~~~~~~~~~~~~~~~~~~~~~~~~~~~~~~~~~~~~~~~~~~~~~\n    // ~~~~~~~~~~~~~~~~~~~~~~~~~~~~~~~~~~~~~~~~~~~~~~~~~~~~~~~~~~~~\n\n    /**\n     *\n     * setCoordinador\n     * @dev Set address to coordinador\n     * @param _coordinador {address} Coordinador address\n     *\n     */\n    function setCoordinador(\n        address _coordinador\n    ) external soloOwner soloAbierta {\n        require(\n            _coordinador != address(0),\n            unicode\"La direccion del coordinador parece que no es correcta\"\n        );\n        coordinador = _coordinador;\n    }\n\n    // ~~~~~~~~~~~~~~~~~~~~~~~~~~~~~~~~~~~~~~~~~~~~~~~~~~~~~~~~~~~~\n    // ~~~~~~~~~~~~~~~~~~~~~~~~~~~~~~~~~~~~~~~~~~~~~~~~~~~~~~~~~~~~\n    // PROFESOR\n    // ~~~~~~~~~~~~~~~~~~~~~~~~~~~~~~~~~~~~~~~~~~~~~~~~~~~~~~~~~~~~\n    // ~~~~~~~~~~~~~~~~~~~~~~~~~~~~~~~~~~~~~~~~~~~~~~~~~~~~~~~~~~~~\n\n    /**\n     *\n     * addProfesor\n     * @dev Create a new profesor\n     * @param _profesor_address {address}       Direccin del profesor\n     * @param _name             {string memory} Nombre del profesor\n     *\n     */\n    function addProfesor(\n        address _profesor_address,\n        string memory _name\n    ) external soloOwner soloAbierta {\n        require(\n            bytes(_name).length > 0,\n            unicode\"El nombre del profesor no puede estar vaco\"\n        );\n        require(\n            bytes(datosProfesor[_profesor_address]).length == 0,\n            unicode\"El profesor ya existe\"\n        );\n\n        datosProfesor[_profesor_address] = _name;\n        profesores.push(_profesor_address);\n    }\n\n    /**\n     *\n     * matriculasLength\n     * @dev getter de tamao de array de profesores\n     *\n     * @return (uint)\n     *\n     */\n    function profesoresLength() public view returns (uint) {\n        return profesores.length;\n    }\n\n    // ~~~~~~~~~~~~~~~~~~~~~~~~~~~~~~~~~~~~~~~~~~~~~~~~~~~~~~~~~~~~\n    // ~~~~~~~~~~~~~~~~~~~~~~~~~~~~~~~~~~~~~~~~~~~~~~~~~~~~~~~~~~~~\n    // MATRICULAS\n    // ~~~~~~~~~~~~~~~~~~~~~~~~~~~~~~~~~~~~~~~~~~~~~~~~~~~~~~~~~~~~\n    // ~~~~~~~~~~~~~~~~~~~~~~~~~~~~~~~~~~~~~~~~~~~~~~~~~~~~~~~~~~~~\n\n    /**\n     *\n     * automatricula\n     * @dev El alumno se puede matricular\n     *\n     * @param _nombre   {string memory} Nombre de alumno\n     * @param _dni      {string memory} Dni de alumno\n     * @param _email    {string memory} Email de alumno\n     *\n     */\n    function automatricula(\n        string memory _nombre,\n        string memory _dni,\n        string memory _email\n    ) public soloNoMatriculados soloAbierta {\n        require(bytes(_nombre).length != 0, \"El nombre no puede ser vacio\");\n        require(bytes(_dni).length != 0, \"El DNI no puede ser vacio\");\n        if (doesAlumnoDNIExists(_dni)) {\n            revert DNI_Already_Exists(_dni);\n        }\n\n        DatosAlumno memory datos = DatosAlumno(_nombre, _dni, _email);\n        datosAlumno[msg.sender] = datos;\n        matriculas.push(msg.sender);\n    }\n\n    /**\n     *\n     * matricular\n     * @dev El propietario puede matricular a alumnos\n     *\n     * @param _address  {address}       Direccin de alumno\n     * @param _nombre   {string memory} Nombre de alumno\n     * @param _dni      {string memory} Dni de alumno\n     * @param _email    {string memory} Email de alumno\n     *\n     */\n    function matricular(\n        address _address,\n        string memory _nombre,\n        string memory _dni,\n        string memory _email\n    ) public soloOwner soloAbierta {\n        require(bytes(_nombre).length != 0, \"El nombre no puede ser vacio\");\n        require(bytes(_dni).length != 0, \"El DNI no puede ser vacio\");\n        require(!doesAlumnoDNIExists(_dni), \"Ya hay alguien con ese DNI\");\n\n        DatosAlumno memory datos = DatosAlumno(_nombre, _dni, _email);\n        datosAlumno[_address] = datos;\n        matriculas.push(_address);\n    }\n\n    /**\n     *\n     * matriculasLength\n     * @dev getter de tamao de array de matrculas\n     *\n     * @return (uint)\n     *\n     */\n    function matriculasLength() public view returns (uint) {\n        return matriculas.length;\n    }\n\n    /**\n     *\n     * quienSoy\n     * @dev retorna el nombre e email de una persona matriculada\n     *\n     * @return  datos  {DatosAlumno memory}\n     *\n     */\n    function quienSoy()\n        public\n        view\n        soloMatriculados\n        returns (DatosAlumno memory datos)\n    {\n        datos = datosAlumno[msg.sender];\n    }\n\n    // ~~~~~~~~~~~~~~~~~~~~~~~~~~~~~~~~~~~~~~~~~~~~~~~~~~~~~~~~~~~~\n    // ~~~~~~~~~~~~~~~~~~~~~~~~~~~~~~~~~~~~~~~~~~~~~~~~~~~~~~~~~~~~\n    // EVALUACIN\n    // ~~~~~~~~~~~~~~~~~~~~~~~~~~~~~~~~~~~~~~~~~~~~~~~~~~~~~~~~~~~~\n    // ~~~~~~~~~~~~~~~~~~~~~~~~~~~~~~~~~~~~~~~~~~~~~~~~~~~~~~~~~~~~\n\n    /**\n     *\n     * creaEvaluacion\n     * @dev crea una nueva evaluacin para la asignatura\n     *\n     * @param _nombre       {string memory}\n     * @param _fecha        {uint}\n     * @param _porcentaje   {uint}\n     * @param _nota_minima  {uint}\n     *\n     * @return indice       {uint}\n     *\n     */\n    function creaEvaluacion(\n        string memory _nombre,\n        uint _fecha,\n        uint _porcentaje,\n        uint _nota_minima\n    ) public soloCoordinador soloAbierta returns (uint) {\n        require(\n            bytes(_nombre).length != 0,\n            unicode\"El nombre de la evaluacion no puede ser vacio\"\n        );\n        require(\n            _porcentaje < 100,\n            unicode\"No puedes tener un porcentaje tan alto\"\n        );\n\n        evaluaciones.push(\n            Evaluacion(_nombre, _fecha, _porcentaje, _nota_minima)\n        );\n        return evaluaciones.length - 1;\n    }\n\n    function evaluacionesLength() public view returns (uint) {\n        return evaluaciones.length;\n    }\n\n    // ~~~~~~~~~~~~~~~~~~~~~~~~~~~~~~~~~~~~~~~~~~~~~~~~~~~~~~~~~~~~\n    // ~~~~~~~~~~~~~~~~~~~~~~~~~~~~~~~~~~~~~~~~~~~~~~~~~~~~~~~~~~~~\n    // CALIFICACIONES x EVALUACION\n    // ~~~~~~~~~~~~~~~~~~~~~~~~~~~~~~~~~~~~~~~~~~~~~~~~~~~~~~~~~~~~\n    // ~~~~~~~~~~~~~~~~~~~~~~~~~~~~~~~~~~~~~~~~~~~~~~~~~~~~~~~~~~~~\n\n    /**\n     *\n     * califica\n     * @dev califica un alumno en una evaluacin\n     *\n     * @param _alumno       {address}\n     * @param _evaluacion   {uint}\n     * @param _tipo         {TipoNota}\n     * @param _calificacion {uint}\n     *\n     */\n    function califica(\n        address _alumno,\n        uint _evaluacion,\n        TipoNota _tipo,\n        uint _calificacion\n    ) public soloProfesor soloAbierta {\n        require(\n            estaMatriculado(_alumno),\n            \"Solo se pueden calificar a un alumno matriculado.\"\n        );\n        require(\n            _evaluacion < evaluaciones.length,\n            \"No se puede calificar una evaluacion que no existe.\"\n        );\n        require(\n            _calificacion <= 1000,\n            \"No se puede calificar con una nota superior a la maxima permitida.\"\n        );\n\n        Nota memory nota = Nota(_tipo, _calificacion);\n        calificaciones[_alumno][_evaluacion] = nota;\n    }\n\n    /**\n     *\n     * miNota\n     * @dev se consulta una calificacin en una evaluacin por alumno\n     *\n     * @param _evaluacion   {uint}\n     *\n     * @return _tipo         {TipoNota}\n     * @return _calificacion {uint}\n     *\n     */\n    function miNota(\n        uint _evaluacion\n    )\n        public\n        view\n        soloMatriculados\n        returns (TipoNota _tipo, uint _calificacion)\n    {\n        require(\n            _evaluacion < evaluaciones.length,\n            \"El indice de la evaluacion no existe.\"\n        );\n\n        Nota memory nota = calificaciones[msg.sender][_evaluacion];\n        _tipo = nota.tipo;\n        _calificacion = nota.calificacion;\n    }\n\n    // ~~~~~~~~~~~~~~~~~~~~~~~~~~~~~~~~~~~~~~~~~~~~~~~~~~~~~~~~~~~~\n    // ~~~~~~~~~~~~~~~~~~~~~~~~~~~~~~~~~~~~~~~~~~~~~~~~~~~~~~~~~~~~\n    // NOTAS FINALES\n    // ~~~~~~~~~~~~~~~~~~~~~~~~~~~~~~~~~~~~~~~~~~~~~~~~~~~~~~~~~~~~\n    // ~~~~~~~~~~~~~~~~~~~~~~~~~~~~~~~~~~~~~~~~~~~~~~~~~~~~~~~~~~~~\n\n    /**\n     *\n     * notaFinal\n     * @dev se calcula la nota final de un alumno sabiendo su direccin\n     *\n     * @param _address   {address}\n     *\n     * @return tipo_nota         {TipoNota}\n     * @return nota_final {uint}\n     *\n     */\n    function notaFinal(\n        address _address\n    )\n        public\n        view\n        soloCoordinador\n        returns (TipoNota tipo_nota, uint nota_final)\n    {\n        (tipo_nota, nota_final) = computeNotaFinal(_address);\n    }\n\n    /**\n     *\n     * miNotaFinal\n     * @dev se calcula la nota final de un alumno sabiendo su direccin\n     *\n     *\n     * @return tipo_nota         {TipoNota}\n     * @return nota_final {uint}\n     *\n     */\n    function miNotaFinal()\n        public\n        view\n        soloMatriculados\n        returns (TipoNota tipo_nota, uint nota_final)\n    {\n        (tipo_nota, nota_final) = computeNotaFinal(msg.sender);\n    }\n\n    /**\n     *\n     * miNotaFinal\n     * @dev se calcula la nota final de un alumno sabiendo su direccin\n     *\n     * @param _address   {address}\n     *\n     * @return tipo_nota         {TipoNota}\n     * @return nota_final {uint}\n     *\n     */\n    function computeNotaFinal(\n        address _address\n    ) private view returns (TipoNota tipo_nota, uint nota_final) {\n        bool isAllNP = true;\n        bool isAnyNP = false;\n        uint notasPondSum = 0;\n        uint totalPond = 0;\n\n        for (uint i = 0; i < evaluacionesLength(); i++) {\n            // empty case\n            if (calificaciones[_address][i].tipo == TipoNota.Empty) {\n                tipo_nota = TipoNota.Empty;\n                nota_final = 0;\n                break;\n            }\n            if (calificaciones[_address][i].tipo != TipoNota.NP) {\n                isAllNP = false;\n            }\n            if (calificaciones[_address][i].tipo == TipoNota.NP) {\n                tipo_nota = TipoNota.NP;\n                isAnyNP = true;\n            }\n            totalPond += evaluaciones[i].porcentaje;\n            notasPondSum +=\n                calificaciones[_address][i].calificacion *\n                evaluaciones[i].porcentaje;\n        }\n\n        // case np\n        if (isAllNP) {\n            if (tipo_nota == TipoNota.Empty) {\n                tipo_nota = TipoNota.Empty;\n                nota_final = 0;\n            } else {\n                tipo_nota = TipoNota.NP;\n                nota_final = 0;\n            }\n        } else {\n            // case normal\n            tipo_nota = TipoNota.Normal;\n            nota_final = notasPondSum / totalPond;\n\n            // case any np\n            if (isAnyNP && nota_final > 499) {\n                tipo_nota = TipoNota.Normal;\n                nota_final = 499;\n            }\n        }\n    }\n\n    // ~~~~~~~~~~~~~~~~~~~~~~~~~~~~~~~~~~~~~~~~~~~~~~~~~~~~~~~~~~~~\n    // ~~~~~~~~~~~~~~~~~~~~~~~~~~~~~~~~~~~~~~~~~~~~~~~~~~~~~~~~~~~~\n    // FE-BINDINGS\n    // ~~~~~~~~~~~~~~~~~~~~~~~~~~~~~~~~~~~~~~~~~~~~~~~~~~~~~~~~~~~~\n    // ~~~~~~~~~~~~~~~~~~~~~~~~~~~~~~~~~~~~~~~~~~~~~~~~~~~~~~~~~~~~\n\n    /**\n     *\n     * getRoleByAddress\n     * @dev Retorna en funcin del address el tipo de role que cumple una direccin\n     *\n     * @param addressIn {address}\n     *\n     * @return roleOut  {RoleType}\n     *\n     */\n    function getRoleByAddress(\n        address addressIn\n    ) public view returns (RoleType roleOut) {\n        roleOut = RoleType.NotRecognized;\n        if (addressIn == owner) {\n            roleOut = RoleType.Owner;\n            return roleOut;\n        }\n        if (addressIn == coordinador) {\n            roleOut = RoleType.Coordinator;\n            return roleOut;\n        }\n        for (uint i = 0; i < profesoresLength(); i++) {\n            if (profesores[i] == addressIn) {\n                roleOut = RoleType.Professor;\n                break;\n            }\n        }\n        for (uint i = 0; i < matriculasLength(); i++) {\n            if (matriculas[i] == addressIn) {\n                roleOut = RoleType.Student;\n                break;\n            }\n        }\n        return roleOut;\n    }\n\n    // ~~~~~~~~~~~~~~~~~~~~~~~~~~~~~~~~~~~~~~~~~~~~~~~~~~~~~~~~~~~~\n    // ~~~~~~~~~~~~~~~~~~~~~~~~~~~~~~~~~~~~~~~~~~~~~~~~~~~~~~~~~~~~\n    // MODIFIERS\n    // ~~~~~~~~~~~~~~~~~~~~~~~~~~~~~~~~~~~~~~~~~~~~~~~~~~~~~~~~~~~~\n    // ~~~~~~~~~~~~~~~~~~~~~~~~~~~~~~~~~~~~~~~~~~~~~~~~~~~~~~~~~~~~\n\n    modifier soloOwner() {\n        require(msg.sender == owner, \"Solo permitido al propietario\");\n        _;\n    }\n\n    modifier soloCoordinador() {\n        require(msg.sender == coordinador, \"Solo permitido al coordinador\");\n        _;\n    }\n\n    modifier soloProfesor() {\n        bool hasBeenProfesor = false;\n        for (uint i = 0; i < profesoresLength(); i++) {\n            if (profesores[i] == msg.sender) {\n                hasBeenProfesor = true;\n                break;\n            }\n        }\n        require(hasBeenProfesor, \"Solo permitido al profesor\");\n        _;\n    }\n\n    modifier soloMatriculados() {\n        require(\n            estaMatriculado(msg.sender),\n            \"Solo permitido a alumnos matriculados\"\n        );\n        _;\n    }\n\n    modifier soloNoMatriculados() {\n        require(\n            !estaMatriculado(msg.sender),\n            \"Solo permitido a alumnos no matriculados\"\n        );\n        _;\n    }\n\n    modifier soloAbierta() {\n        require(!cerrada, unicode\"Las asignatura est cerrada\");\n        _;\n    }\n\n    // ~~~~~~~~~~~~~~~~~~~~~~~~~~~~~~~~~~~~~~~~~~~~~~~~~~~~~~~~~~~~\n    // ~~~~~~~~~~~~~~~~~~~~~~~~~~~~~~~~~~~~~~~~~~~~~~~~~~~~~~~~~~~~\n    // CUSTOM ERRORS\n    // ~~~~~~~~~~~~~~~~~~~~~~~~~~~~~~~~~~~~~~~~~~~~~~~~~~~~~~~~~~~~\n    // ~~~~~~~~~~~~~~~~~~~~~~~~~~~~~~~~~~~~~~~~~~~~~~~~~~~~~~~~~~~~\n\n    error DNI_Already_Exists(string dni);\n\n    // ~~~~~~~~~~~~~~~~~~~~~~~~~~~~~~~~~~~~~~~~~~~~~~~~~~~~~~~~~~~~\n    // ~~~~~~~~~~~~~~~~~~~~~~~~~~~~~~~~~~~~~~~~~~~~~~~~~~~~~~~~~~~~\n    // RECEIVE Y FALLBACK\n    // ~~~~~~~~~~~~~~~~~~~~~~~~~~~~~~~~~~~~~~~~~~~~~~~~~~~~~~~~~~~~\n    // ~~~~~~~~~~~~~~~~~~~~~~~~~~~~~~~~~~~~~~~~~~~~~~~~~~~~~~~~~~~~\n\n    receive() external payable {\n        revert(\"No se permite la recepcion de dinero.\");\n    }\n}\n",
  "sourcePath": "/Users/apabook/Desktop/bdca_final/truffle/contracts/Asignatura.sol",
  "compiler": {
    "name": "solc",
    "version": "0.8.19+commit.7dd6d404.Emscripten.clang"
  },
  "schemaVersion": "3.4.16",
  "updatedAt": "2024-01-14T21:50:25.892Z",
  "networkType": "ethereum",
  "devdoc": {
    "kind": "dev",
    "methods": {
      "addProfesor(address,string)": {
        "details": "Create a new profesor",
        "params": {
          "_name": "{string memory} Nombre del profesor",
          "_profesor_address": "{address}       Direccin del profesor"
        }
      },
      "automatricula(string,string,string)": {
        "details": "El alumno se puede matricular",
        "params": {
          "_dni": "{string memory} Dni de alumno",
          "_email": "{string memory} Email de alumno",
          "_nombre": "{string memory} Nombre de alumno"
        }
      },
      "califica(address,uint256,uint8,uint256)": {
        "details": "califica un alumno en una evaluacin",
        "params": {
          "_alumno": "{address}",
          "_calificacion": "{uint}",
          "_evaluacion": "{uint}",
          "_tipo": "{TipoNota}"
        }
      },
      "cerrar()": {
        "details": "cierra la asignatura"
      },
      "constructor": {
        "details": "Deploy contract",
        "params": {
          "_curso": "{string memory} Curso acadmico",
          "_nombre": "{string memory} Asignatura name"
        }
      },
      "creaEvaluacion(string,uint256,uint256,uint256)": {
        "details": "crea una nueva evaluacin para la asignatura",
        "params": {
          "_fecha": "{uint}",
          "_nombre": "{string memory}",
          "_nota_minima": "{uint}",
          "_porcentaje": "{uint}"
        },
        "returns": {
          "_0": "indice       {uint}"
        }
      },
      "getRoleByAddress(address)": {
        "details": "Retorna en funcin del address el tipo de role que cumple una direccin",
        "params": {
          "addressIn": "{address}"
        },
        "returns": {
          "roleOut": " {RoleType}"
        }
      },
      "matricular(address,string,string,string)": {
        "details": "El propietario puede matricular a alumnos",
        "params": {
          "_address": "{address}       Direccin de alumno",
          "_dni": "{string memory} Dni de alumno",
          "_email": "{string memory} Email de alumno",
          "_nombre": "{string memory} Nombre de alumno"
        }
      },
      "matriculasLength()": {
        "details": "getter de tamao de array de matrculas",
        "returns": {
          "_0": "(uint)"
        }
      },
      "miNota(uint256)": {
        "details": "se consulta una calificacin en una evaluacin por alumno",
        "params": {
          "_evaluacion": "{uint}"
        },
        "returns": {
          "_calificacion": "{uint}",
          "_tipo": "        {TipoNota}"
        }
      },
      "miNotaFinal()": {
        "details": "se calcula la nota final de un alumno sabiendo su direccin",
        "returns": {
          "nota_final": "{uint}",
          "tipo_nota": "        {TipoNota}"
        }
      },
      "notaFinal(address)": {
        "details": "se calcula la nota final de un alumno sabiendo su direccin",
        "params": {
          "_address": "{address}"
        },
        "returns": {
          "nota_final": "{uint}",
          "tipo_nota": "        {TipoNota}"
        }
      },
      "profesoresLength()": {
        "details": "getter de tamao de array de profesores",
        "returns": {
          "_0": "(uint)"
        }
      },
      "quienSoy()": {
        "details": "retorna el nombre e email de una persona matriculada",
        "returns": {
          "datos": " {DatosAlumno memory}"
        }
      },
      "setCoordinador(address)": {
        "details": "Set address to coordinador",
        "params": {
          "_coordinador": "{address} Coordinador address"
        }
      }
    },
    "version": 1
  },
  "userdoc": {
    "kind": "user",
    "methods": {
      "addProfesor(address,string)": {
        "notice": "addProfesor"
      },
      "automatricula(string,string,string)": {
        "notice": "automatricula"
      },
      "califica(address,uint256,uint8,uint256)": {
        "notice": "califica"
      },
      "cerrar()": {
        "notice": "cerrar"
      },
      "constructor": {
        "notice": "constructor"
      },
      "creaEvaluacion(string,uint256,uint256,uint256)": {
        "notice": "creaEvaluacion"
      },
      "getRoleByAddress(address)": {
        "notice": "getRoleByAddress"
      },
      "matricular(address,string,string,string)": {
        "notice": "matricular"
      },
      "matriculasLength()": {
        "notice": "matriculasLength"
      },
      "miNota(uint256)": {
        "notice": "miNota"
      },
      "miNotaFinal()": {
        "notice": "miNotaFinal"
      },
      "notaFinal(address)": {
        "notice": "notaFinal"
      },
      "profesoresLength()": {
        "notice": "matriculasLength"
      },
      "quienSoy()": {
        "notice": "quienSoy"
      },
      "setCoordinador(address)": {
        "notice": "setCoordinador"
      }
    },
    "version": 1
  }
}